:020000040800F2
:1000000018C5012059020008192F000821210008F5
:100010001B2E0008E10D0008E1460008000000006A
:10002000000000000000000000000000A101000826
:10003000A110000800000000F501000821360008AA
:1000400073020008730200087302000873020008BC
:1000500073020008730200087302000873020008AC
:10006000730200087302000873020008730200089C
:10007000730200087302000873020008730200088C
:10008000730200087302000873020008730200087C
:10009000730200087302000873020008730200086C
:1000A000730200087302000873020008730200085C
:1000B000730200087302000873020008730200084C
:1000C000730200087302000873020008730200083C
:1000D000730200087302000873020008730200082C
:1000E000A5100008730200087302000873020008DC
:1000F000730200087302000873020008730200080C
:1001000073020008730200087302000873020008FB
:1001100073020008730200087302000873020008EB
:1001200073020008730200087302000873020008DB
:1001300073020008730200087302000873020008CB
:1001400073020008730200087302000873020008BB
:1001500073020008730200087302000873020008AB
:10016000730200087302000873020008730200089B
:10017000730200087302000873020008730200088B
:100180007302000873020008DFF810D000F000FCD2
:10019000004800476D820208AFF3008018C50120B7
:1001A0002A4B19680868B0E8F04F80F30988BFF35C
:1001B0006F8F4FF0000080F311887047000000003F
:1001C00006480068006880F3088862B661B6BFF32D
:1001D0004F8FBFF36F8F00DF00BF00BF08ED00E05F
:1001E000DFF80C00016841F470010160704700BF46
:1001F00088ED00E0EFF30980BFF36F8F134B1A68AF
:100200001EF0100F08BF20ED108A20E9F04F10609B
:1002100008B44FF0BF0080F31188BFF34F8FBFF3D6
:100220006F8F2EF063FD4FF0000080F3118808BC43
:1002300019680868B0E8F04F1EF0100F08BFB0EC66
:10024000108A80F30988BFF36F8F704788030020FE
:10025000EFF30580704700000648804706480047D6
:10026000FEE7FEE7FEE7FEE7FEE7FEE7FEE7FEE766
:10027000FEE7FEE735360008890100082DE9F05F4A
:100280000546002092469B46884606468146402405
:100290001BE0284641464746224600F022FA5346D4
:1002A0005A46C01A914110D311461846224600F012
:1002B00009FA2D1A67EB01084F462246012000215A
:1002C00000F000FA17EB00094E41201EA4F10104D2
:1002D000DFDC484631462A464346BDE8F09F10B56C
:1002E000431A934209D28318881803E010F8011DBD
:1002F00003F8011D521EF9D210BD40EA01039B070D
:1003000003D009E008C9121F08C0042AFAD203E08A
:1003100011F8013B00F8013B521EF9D210BDD2B2D8
:1003200001E000F8012B491EFBD270470022F6E7DE
:1003300010B513460A4604461946FFF7F0FF20465B
:1003400010BD421C10F8011B0029FBD1801A704718
:1003500010B5002200E0521C835C8C5CA34201D1EA
:10036000002BF8D1D8B2E1B2401A10BD034611F803
:10037000012B00F8012B002AF9D118467047002202
:10038000CBB20178994200D10246401C0029F8D135
:10039000104670472DE9FE4F804681EA0300C00FEA
:1003A0000C46009021F0004123F00045B8EB02001C
:1003B000A94105D24046214690461C460B460246BE
:1003C00023F00040104347D0270DC7F30A00C3F3C2
:1003D0000A510290401A019040286BDAC3F31300CF
:1003E00040F4801B0098924620B10023D2EB030A10
:1003F00063EB0B0B01985946C0F14002504600F0E8
:1004000061F906460D4650465946019A00F079F9C1
:1004100010EB08006141002487EA115284EAE77377
:100420001A4340D0009A62B3019A012A4FEA075258
:1004300015DC001B61EB02014FF0004202EA07529B
:10044000CDE90042001C41F5801132462B4600F0F8
:1004500079F903B0BDE8F08F40462146F9E7001B6B
:1004600061EB0201001C41F5801300185B4120186C
:10047000A2F5001747EB030140EAD570B6196D41AC
:1004800011E06D084FEA360645EAC0754FEA07529B
:10049000001B61EB0201001C41F5801149084FEA85
:1004A00030000019514132462B4603B0BDE8F04FF1
:1004B00000F039B90098012240000023D0EB02027D
:1004C00063EBE073009821464FEAE074B8EB00005C
:1004D00061EB0401E9E783F000435BE781F0004151
:1004E00058E72DE9FE4F81EA030404F0004421F0AF
:1004F000004100944FF0000B23F0004350EA010448
:100500005ED052EA03045BD0C3F30A54C1F30A5528
:100510002C44A4F2F3340194A0FB0254C1F3130160
:1005200041F48011C3F3130343F4801301FB02442D
:1005300000FB034E840A970A44EA815447EA835732
:10054000A4FB076802958D0A05FB07854FEA932CEB
:1005500004FB0C542705029D4FEA065847EA16375C
:10056000B5EB08056EEB070C870E920E47EA811774
:1005700042EA8312A7FB0201B6EB0B0164EB000415
:100580002B0D43EA0C335E1844EB1C50DA465146FF
:10059000E7FB0201C5F313044FEA0B3343EA14539C
:1005A0004FEA0432019C43EA0603A4F10C040294CE
:1005B000009CCDE900B400F0C5F803B0BDE8F08FB1
:1005C00000200146F9E70EB540F2334102910021C7
:1005D000CDE900110A460B4600F0B4F803B000BDA7
:1005E000C1F30A5210B5C1F3130140F2FF3341F4D5
:1005F00080119A4201DA002010BD40F233439A4242
:10060000A2F2334203DC524200F06BF810BD90407E
:1006100010BD00F0004230F000400AD0C10D01F5DD
:100620006071C0F3160042EA0151C208400711434D
:10063000704700200146704730B5041E71F1000478
:1006400004DB4FF00044404264EB0101141E73F1DF
:10065000000405DB1C464FF00043524263EB0403E9
:100660008B4208BF824230BD30B5041E71F10004D8
:1006700004DB4FF00044404264EB0101141E73F1AF
:10068000000405DB1C464FF00043524263EB0403B9
:10069000994208BF904230BD30B50B46014600205C
:1006A0002022012409E021FA02F59D4205D303FA34
:1006B00002F5491B04FA02F52844151EA2F10102B5
:1006C000F1DC30BD202A04DB203A00FA02F10020E0
:1006D00070479140C2F1200320FA03F31943904080
:1006E0007047202A04DB203A21FA02F000217047EB
:1006F00021FA02F3D040C2F120029140084319468A
:100700007047202A06DBCB17203A41FA02F043EA71
:10071000E07306E041FA02F3D040C2F120029140BA
:1007200008431946704710B5141E73F1000408DA27
:10073000401C41F1000192185B411A4301D120F0A5
:10074000010010BD2DE9F04D92469B4611B1B1FA62
:1007500081F202E0B0FA80F220329046FFF7B2FF59
:1007600004460F4640EA0A0041EA0B0153465A4646
:10077000084313D0114653EA010019D0C8F14002D2
:100780005046FFF7AEFF05460E46504659464246D4
:10079000FFF798FF084305D0012004E020463946C2
:1007A000BDE8F08D0020054346EAE0762C43374350
:1007B0000A986305E40AA0EB08000022FD0A44EA57
:1007C00047540A3002D500200146E9E70105101917
:1007D0006941DDE9084500196941BDE8F04DA2E72E
:1007E0002DE9F04D81EA030404F0004B21F00045AF
:1007F00014464FF0000A23F0004150EA050220D0D1
:1008000054EA01021DD0C5F30A570246C5F313038B
:10081000C1F31300C1F30A5640F4801543F480136A
:10082000A7EB0608101BD64608F2FD3873EB05004F
:1008300002D308F1010801E092185B41B8F1000F02
:1008400003DA00200146BDE8F08D00204FF480114E
:10085000064684460EE0171B73EB050705D3121BF3
:1008600063EB050306434CEA010C49084FEA3000EC
:1008700092185B4150EA0107EDD152EA030012D011
:1008800082EA040083EA0501084305D0101BAB414E
:1008900006D20122002306E000224FF0004302E0CE
:1008A0006FF0010253101AEB06004CEB085110EBED
:1008B0000A0041EB0B01BDE8F04DFFF734BF2DE915
:1008C000F04D00231A461B1A8A4103DB0020014623
:1008D000BDE8F08DC1F30A52C1F3130141F4801554
:1008E0004FF0000BD10702D100186D41521E0027B6
:1008F000044640F2FF11384601EB620A3E4680464C
:10090000024600204FF48011FFF7EBFEC21971413F
:10091000BB1846EB0100B4EB030C75EB000C04D3E1
:10092000E41A65EB000517460E46241908F101008C
:100930006D4180463428E3DDF91946EB0600091BBA
:10094000A84103D24FF0FF32134601E000221346C4
:100950001BEB070046EB0A51BDE8F04DFFF7E3BE85
:10096000C1F30A52C1F3130140F2FF3341F4801185
:100970009A4202DA00200146704740F233439A421D
:10098000A2F2334202DC5242FFF7ABBEFFF79ABE3F
:10099000064C074D06E0E06840F0010394E80700CC
:1009A00098471034AC42F6D3FFF7F2FB5CD9060847
:1009B0007CD9060870B58C1810F8015B15F0070398
:1009C00001D110F8013B2A1106D110F8012B03E0E8
:1009D00010F8016B01F8016B5B1EF9D12B0705D4F0
:1009E0000023521E0DD401F8013BFAE710F8013B39
:1009F000CB1A921C03E013F8015B01F8015B521E55
:100A0000F9D5A142D8D3002070BD000038B5094CFB
:100A1000607800280DD108A000900D4B40220DA158
:100A2000042005F0BBFA01206070BDE8384000F0FA
:100A3000B1B938BD10000020456E746572696E67EB
:100A400020736C656570206D6F64652E2E2E00001E
:100A50001FF602084170706C69636174696F6E5CA7
:100A60004170705F4175746F536C6565705C415087
:100A7000505F4175746F536C6565702E63000000A4
:100A80000148406870470000100000201CB52EF09F
:100A900003FC0849124B16224860002048700120D0
:100AA00008703C2104A0CDE900010EA1042005F04E
:100AB00075FA1CBD100000204150505F4175746FE5
:100AC000536C65657020696E697469616C697A65DB
:100AD000642C2074696D656F75743D256473000026
:100AE000F4F502084170706C69636174696F6E5C43
:100AF0004170705F4175746F536C6565705C4150F7
:100B0000505F4175746F536C6565702E6300000013
:100B1000014800787047000010000020014840782C
:100B2000704700001000002010B52EF0B5FB0549FD
:100B300048604878002803D0BDE8104000F048B86D
:100B400010BD0000100000207CB50B4D04002C707F
:100B500001D00AA000E00BA00DA1CDE90010104BC0
:100B6000262210A1042005F019FA002C02D02EF044
:100B700093FB68607CBD000010000020456E616240
:100B80006C65640044697361626C65640000000018
:100B90004175746F20536C656570202573000000EB
:100BA00007F602084170706C69636174696F6E5C6E
:100BB0004170705F4175746F536C6565705C415036
:100BC000505F4175746F536C6565702E6300000053
:100BD00038B50A4C607800280ED009A000900C4B64
:100BE0004B220CA1042005F0D9F90020607000F020
:100BF000DBF82EF051FB606038BD000010000020D3
:100C000057616B696E672075702E2E2E00000000F4
:100C100038F602084170706C69636174696F6E5CCC
:100C20004170705F4175746F536C6565705C4150C5
:100C3000505F4175746F536C6565702E63000000E2
:100C40001CB500F06BFF01F009FCFFF71FFF00F07F
:100C50003FF807490120CDE900010202002305A168
:100C600007482EF0B1FABDE81C402EF00FB8000086
:100C70000000002073746172745F7461736B000014
:100C80004DBA020808B54FF47A742EF005FB4EF603
:100C900060250090214668462EF0C4FAFFF738FF21
:100CA0000028F7D0FFF73AFF0028F3D12EF0F4FA2E
:100CB0000646FFF7E5FE301AA842EBD3FFF7A6FE83
:100CC000E8E700000148007870470000B400002009
:100CD00070B58AB00121022002F0B8FB0121022088
:100CE00002F0C0FB02208DF8240000248DF825407E
:100CF000254E01258DF8264008958DF8274008A936
:100D0000304600F051FC02220021304600F09DFCEC
:100D100005A802F065FD40F61F501C4EADF81440CA
:100D20000690ADF8164005A9304602F01BFD684656
:100D300002F00EFD6020ADF800004FF42A60029032
:100D4000ADF80250ADF80C406946304602F0BCFCEC
:100D500000220121304602F0AFFC0022082130467B
:100D600002F0AAFC0821304602F0ECFC01213046DA
:100D700002F08EFC0121304602F094FC0449502020
:100D800008700AB070BD000000040240000400407A
:100D9000B400002002490020086002490870704732
:100DA0003C040040B40000200248007800B96420F0
:100DB00000F002B8B4000020642801D9642003E0E8
:100DC000411E042900D2052003490870034900EBA5
:100DD0000010400008607047B40000203C04004050
:100DE000FEE700002DE9F0410D4D0024C5F8AC42AE
:100DF000022005F52B7508F047FF0A4F0126C7F8BA
:100E00008062022007F5207708F03EFF3C60022058
:100E100008F03AFF2E60BDE8F041022008F034BF30
:100E200000804242008040421CB50121222002F095
:100E30000DFB01248DF804408DF8064000948DF8D8
:100E400007406946054800F0AFFBE00200908DF8CE
:100E500004406946024800F0A7FB1CBD00040240A4
:100E60000014024070B50B480125C0F8AC520220B6
:100E700008F00AFF084CC4F88052022004F52074E0
:100E800008F002FF00202060BDE87040022008F05A
:100E9000FBBE000000804242008040422DE9F04746
:100EA0000024DFF84C80134E824625460127A146D8
:100EB0006006040EC6F88072022008F0E5FED8F83D
:100EC0002C0208B1641CE4B2C6F88092022008F03B
:100ED000DBFE6D1CEDB2082DEAD3BAF1000F04D091
:100EE000FFF780FF2046BDE8F087FFF7BBFFF9E77B
:100EF00000804242008040422DE9F04700240E4F1E
:100F00000E4E0546A1464FF00108E809C7F8AC02AD
:100F1000022008F0B9FEC6F88082022008F0B4FE74
:100F2000C6F880926806641C050EE4B2082CECD367
:100F3000C7F8AC82BDE8F0870080424200804042A2
:100F400070B50C4C0120C4F8AC020B4DC5F8800202
:100F5000022004F52B7405F5207508F095FE002697
:100F60002660022008F090FE2E60BDE8704002204E
:100F700008F08ABE008042420080404270B50B4CAF
:100F80000020C4F8AC02022004F52B7408F07CFEAB
:100F900007480125C0F88052022008F075FE256040
:100FA000BDE87040022008F06FBE000000804242A1
:100FB000008040422DE9F0410024124E01272546D1
:100FC000C6F8AC72022008F05FFE38460E4FC7F834
:100FD000800207E0641CE4B2FA2C03D9FFF7CEFFCD
:100FE000012506E0022008F04FFED6F82C0200286A
:100FF000F0D10020C7F88002022008F045FE284604
:10100000BDE8F081008042420080404210B54FF4BC
:10101000E13101202DF076FA5C2118A0FFF7AFF93D
:1010200028B15C2115A0FFF7AAF9401C00E013A02D
:101030002F21FFF7A4F900284FF05C010FA00BD07F
:10104000FFF79DF928B15C210CA0FFF798F9401C2F
:1010500000E00AA02F2104E0FFF791F928B15C21FC
:1010600006A0FFF78CF9401C00E004A00146BDE893
:1010700010400622094803F0C5BB0000436F6D6DA8
:101080006F6E5C436F6D5F44656275675C436F6D47
:101090005F44656275672E630000000004CF060898
:1010A0007047000038B54FF48044204600F020F827
:1010B000002812D0002000900848694680682DF072
:1010C000B3FF009830B10649A0030860BFF34F8F0B
:1010D000BFF36F8F204600F005F838BDB800002040
:1010E00004ED00E00149086070470000143C014035
:1010F000034A0146002012680A4200D001207047CE
:10110000143C014030B51A498379026853B30B6827
:1011100093430B600A1D13680468A34313600279AC
:101120000A441368046823431360114A08321368A1
:101130000468A3431360131D1C680568AC431C605E
:101140004479102C05D021440A68006802430A60E3
:1011500030BD1168046821431160196800680143BB
:10116000196030BD0079084401689143016030BDC9
:10117000003C01400021016001710C22427181712B
:10118000704700002DE9FF410121062002F05EF9C1
:1011900000248DF80C408DF80E4003208DF80D00D2
:1011A0000226012502968DF80F5002A9394800F059
:1011B000FBF9680302908DF80C5002A9364800F044
:1011C000F3F9FFF731FE354FC7F8B442142007F5A5
:1011D0002D7708F053FD3D60322008F04FFD8DF86B
:1011E000004001226946002000F0BAF90122694658
:1011F000A42000F0B5F916208DF800000122694600
:10120000802000F0ADF90C208DF800000122694625
:10121000882000F0A5F902226946A12000F04EF8CE
:101220009DF80000302803D19DF8010003282BD041
:101230000422694648F2401000F0B4FA8DF80440E8
:10124000694617A003F0DEFA1848009948F24005F5
:10125000C0F802108DF8006001226946284600F0AF
:10126000AFFB01226946E81D00F09CFA0A2008F055
:1012700005FD8DF8004001226946284600F0A0FBDC
:1012800004B00020BDE8F08143F2030108A003F0A0
:10129000B9FAF5E7000402400008024000004142AC
:1012A0004354502049443A25730D0A00CC000020D5
:1012B0004354502049443A25780D0A002DE9F04165
:1012C00015460E460446FFF73BFE7020FFF714FE5E
:1012D000FFF770FEE0B2FFF70FFEFFF76BFEFFF7C0
:1012E0002FFE7120FFF708FEFFF764FE00246F1E3B
:1012F00009E0BC4201D0012000E00020FFF7CEFD54
:101300003055641CE4B2AC42F3D3BDE8F041FFF7C2
:1013100035BE00002DE9F14783B000268B4D8DF8D6
:1013200004604FF00A096878894C401CC0B2B0FBD9
:10133000F9F209FB12013746687009B10A2871D227
:10134000824884A1801CFFF703F84FF0010203A933
:1013500010B30220FFF7B2FF9DF80C00010761D027
:10136000297800F00F028A425CD8FF209040C043E9
:1013700094F8208040F0C00084F8200004EB410085
:10138000A2894281E18A8182042008F077FC8DF8ED
:101390000460DFF8C4A185E048F24E18404600F032
:1013A00001FA9DF80C000106D6D5297800F00F004F
:1013B0008842D1D88DF80460012201A9404600F08E
:1013C000FFFAC9E794F8201001228240114264D04C
:1013D0005E4860A1801CFEF7BBFF20B35F489DF80C
:1013E0000410042230F811006946FFF767FF94F8F3
:1013F00030009DF80010C0079DF8010001F00F01BA
:1014000000EB012138D09DF8040004EB4000C182BC
:101410009DF802209DF8031002F00F0201EB02215B
:1014200081813AE059E04D489DF804100A300422C9
:1014300030F81100694600F0B5F994F830009DF8D5
:101440000110C0079DF8000000EB01219DF8040089
:1014500004EB400005D081819DF802109DF8032027
:1014600018E0C1829DF802109DF8032001EB0222D2
:10147000BAF80010891AD3E7BAF80000411A9DF8AB
:10148000040004EB400081819DF802209DF80310C8
:1014900002F00F0201EB0221C1829DF80400401C02
:1014A0008DF804009DF80400297888428AD3A18928
:1014B000BAF800200127914204D8E18ABAF8020064
:1014C000814209D99DF80C0000F00F00012812D9C3
:1014D000E089A081208BE0826E701C481DA1801CD9
:1014E000FEF736FF01009DF80C104FF6FF700FD08D
:1014F000C90625D01BE0287804EB40004189A18172
:10150000808AE08280208DF80C0084F82080E4E757
:1015100001F08F01802913D009E000BF21F0800085
:1015200003E0A081E08201F0E00084F82000687808
:10153000F02801D985F8019004B03846BDE8F0875D
:1015400094F820100A06ECD5E8E70000CC00002053
:10155000DC00002039313100D8030020A611030837
:101560002DE9F04116460F4604460025FFF7E8FC3A
:101570007020FFF7C1FCFFF71DFDE0B2FFF7BCFCD8
:10158000FFF718FD002408E0385DFFF7B5FCFFF712
:1015900011FD050003D1641CE4B2B442F4D3FFF79B
:1015A000EDFC2846BDE8F081F0B5002301240327B7
:1015B0000D6804FA03F21540954242D1D0F800C0FC
:1015C0005E0007FA06F52CEA050CC0F800C091F899
:1015D00004C0D0F800E00CFA06FC4CEA0E0CC0F88F
:1015E00000C091F804C0BCF1010F02D0BCF1020FA1
:1015F0001FD1D0F808C02CEA050CC0F808C091F83B
:1016000005C0D0F808E00CFA06FC4CEA0E0CC0F855
:1016100008C0D0F804C02CEA020CC0F804C042682C
:1016200091F806C00CFA03FC1FFA8CFC42EA0C028B
:101630004260C268AA43C260CA79C568B2402A4300
:10164000C2605B1C102BB3D3F0BD4B07DB0E9A407E
:10165000C90810B500EB8100016A0F249C40A1432A
:101660000162016A1143016210BD02460020126945
:101670000A4200D0012070470904816170478161EE
:1016800070470AB1816170470904FBE72DE9FF410A
:101690000121062001F0DAFE00248DF804408DF8C7
:1016A000064003208DF80500DFF8C48002260125DE
:1016B00000968DF8075069464046FFF775FF6803AE
:1016C00000908DF8045069462A48FFF76DFFFFF738
:1016D000ABFB294FC7F8B4420A2007F52D7708F075
:1016E000CDFA3D600A2008F0C9FA8DF80450009642
:1016F0008DF8074069464046FFF756FF642008F022
:10170000BDFA042202A948F2401000F04BF88DF80F
:101710000C4002A919A003F075F81BA102A8FEF75E
:1017200017FE08BB48F240058DF80860012202A9A7
:10173000284600F045F9012202A9E81D00F032F820
:101740009DF80810602905D211A003F05BF8012074
:1017500000F00EF90A2008F091FA8DF808400122F5
:1017600002A9284600F02CF904B00020BDE8F08161
:10177000000402400008024000004142435450204F
:1017800049443A25730D0A0039313437000000000E
:1017900044656661756C74205665723A25640D0A5D
:1017A000000000002DE9F04115460E460446FFF703
:1017B000C7FB2820FFF7A0FBFFF7FCFB200AFFF781
:1017C0009BFBFFF7F7FBE0B2FFF796FBFFF7F2FB9F
:1017D000FFF7B6FB2920FFF78FFBFFF7EBFB002499
:1017E0006F1E09E0BC4201D0012000E00020FFF79D
:1017F00055FB3055641CE4B2AC42F3D3BDE8F04174
:10180000FFF7BCBB2DE9F147554E00244FF00A0A03
:10181000307885B0401CC0B2B0FBFAF20AFB12016E
:10182000504DA046307009B10A286ED248F24E19C8
:10183000012205A94846FFF7B5FF00278DF8007083
:1018400001226946484600F0BBF89DF814000107E4
:101850005BD000F00F01062957D2FF2088408DF899
:101860000000C04395F8209040F0C00085F82000AB
:10187000A889A882E88AE8834FF0010895F820102B
:1018800008FA04F0014225D03748042201A930F8B3
:101890001400FFF787FF95F830009DF80510C0078A
:1018A0009DF8040000EB012105EB44000AD0C18241
:1018B0009DF806109DF8072001EB0221C1F5487143
:1018C000818107E081819DF806109DF8072001EBDA
:1018D0000221C182641CE4B2052CCFD32349AA891A
:1018E0004FF001080B8828469A4203D8C28A4988DB
:1018F0008A4209D99DF8141001F00F0101290BD972
:10190000C1898181018BE98237709DF8140000F054
:101910008F0080280AD01AE0818A8181C18BC18220
:1019200080218DF8141085F82090EEE795F82000BE
:10193000010603D520F0800085F820004FF6FF70E7
:1019400025F80C0F6881287D00F0E00028753078BC
:10195000F02801D986F800A006B04046BDE8F0871F
:10196000D3000020DC00002072120308D8030020FE
:1019700008B500218DF800108DF801000F4800BF58
:10198000435C9DF80020491C1A44C9B28DF8002020
:10199000B829F5D3D0B2C043401C8DF80000B8225E
:1019A000064948F2470000F00BF80222694648F267
:1019B000FF0000F005F8002008BD0000BA11030880
:1019C0002DE9F04116460F4604460025FFF7B8FA08
:1019D0002820FFF791FAFFF7EDFA200AFFF78CFABB
:1019E000FFF7E8FAE0B2FFF787FAFFF7E3FA00241F
:1019F00008E0385DFFF780FAFFF7DCFA050003D155
:101A0000641CE4B2B442F4D3FFF7B8FA2846BDE848
:101A1000F081000038B51CA00090254B292225A19B
:101A2000042004F0BBFA2E4C206808B11FF06EF9B8
:101A300000201FF05FF9F0224FF4A071206022F027
:101A400099FA284815F0D7FB01460022206822F0B9
:101A5000A3FB00221146206822F01FFC1021206801
:101A60001FF0B6F820682AF0E1F8206806F002F9C5
:101A7000206812F0EBF81CA000900D4B3A220DA14B
:101A8000042004F08BFA38BD4372656174696E6797
:101A90002041626F75745061676520283332307859
:101AA000323430206C616E647363617065290000AC
:101AB0005AF702084170706C69636174696F6E5CFB
:101AC0004170705F4755495C4755495F41626F758A
:101AD000745C4755495F61626F75742E6300000046
:101AE0002C0000202E1A1A0041626F757450616735
:101AF00065206372656174656420737563636573E3
:101B00007366756C6C79000003484068002801D149
:101B100027F0E0BF704700006400002038B516F0E1
:101B2000A3F9040033D0052022F07CFD05460020F7
:101B300022F078FD19490091014601232A462046EA
:101B400025F01CFC0146204616F018FB14A000905E
:101B50001A4B49221AA1042004F020FA00F04CF993
:101B6000FFF758FF00F0BCF900F0C4F9FFF7CCFF15
:101B700000F0CAF91C48006816F0D8FA1BA00090C3
:101B80000E4B54220EA1042004F008FA38BD23A005
:101B90003C220090094B0AA10320F5E79485030835
:101BA000496E697469616C697A696E672047554945
:101BB0002070616765732E2E2E0000009AF60208D1
:101BC0004170706C69636174696F6E5C4170705FC5
:101BD0004755495C4755495F6D61696E5C4755499A
:101BE0005F6D61696E2E6300180000204755492023
:101BF000696E697469616C697A6564207375636381
:101C000065737366756C6C792C20486F6D655061D7
:101C10006765206C6F616465640000004E6F20642E
:101C20006973706C61792072656769737465726538
:101C300064206265666F7265204755495F496E6929
:101C40007421000038B509A000900D4B3F220DA172
:101C5000042004F0A3F9164C206808B9FFF7DAFE57
:101C60002068BDE8384016F061BA00004C6F61642E
:101C7000696E672041626F7574506167650000008E
:101C80006EF702084170706C69636174696F6E5C15
:101C90004170705F4755495C4755495F41626F75B8
:101CA000745C4755495F61626F75742E6300000074
:101CB0002C00002010B5074C606808B9FFF724FF1E
:101CC0000020207060702CF04DFD6068BDE8104071
:101CD00016F02CBA6400002008B507A000900B4B4A
:101CE000F1220BA1042004F059F913480068BDE863
:101CF000084016F01BBA00004C6F6164696E6720E3
:101D0000486F6D65506167650000000018F70208B4
:101D10004170706C69636174696F6E5C4170705F73
:101D20004755495C4755495F6D61696E5C47554948
:101D30005F6D61696E2E63001800002038B509A040
:101D400000900D4B21220DA1042004F027F9164C20
:101D5000206808B900F0C4F82068BDE8384016F0E3
:101D6000E5B900004C6F6164696E6720506F77655C
:101D70007250616765000000B2F702084170706C34
:101D800069636174696F6E5C4170705F4755495C4F
:101D90004755495F506F7765725C4755495F506F93
:101DA0007765722E630000003C00002010B5054CE2
:101DB000206808B900F09EF82068BDE8104016F0D1
:101DC000B5B900004C00002010B5094C606808B996
:101DD00000F09AF8002020709FED060A84ED090AB1
:101DE0002CF032FD6068BDE8104016F09FB900008D
:101DF000840000200000000038B51AA00090234B9A
:101E0000592223A1042004F0C9F800201EF072FF1B
:101E1000294CF0224FF4A071206022F0ABF8274843
:101E200015F0D8F901460022206822F0B5F9002209
:101E30001146206822F01AFA102120681EF0C8FE10
:101E4000206829F04DFE206826F028FD206811F05A
:101E5000F9FD1BA000900D4B65220DA1042004F09C
:101E60009DF838BD4372656174696E6720486F6D77
:101E70006550616765202833323078323430206C09
:101E8000616E64736361706529000000A3F6020847
:101E90004170706C69636174696F6E5C4170705FF2
:101EA0004755495C4755495F6D61696E5C475549C7
:101EB0005F6D61696E2E6300180000202E1A1A00F3
:101EC000486F6D6550616765206372656174656414
:101ED000207375636365737366756C6C79000000BD
:101EE00003480068002801D127F0F4B870470000CB
:101EF0003C00002003480068002801D127F090BA78
:101F0000704700004C00002003484068002801D1C1
:101F100027F08EBF704700008400002008B506A09F
:101F200000900A4B2C220AA1042004F037F8BDE8E7
:101F30000840FFF7D1BE0000556E6C6F6164696E9A
:101F40006720506F7765725061676500C5F70208BA
:101F50004170706C69636174696F6E5C4170705F31
:101F60004755495C4755495F506F7765725C4755E7
:101F7000495F506F7765722E6300000008B52DF041
:101F80008BF9009025F052FB00F058F902F0D6FAD8
:101F9000052168462DF046F9F4E70000F8B526A0C3
:101FA00000902E4B7E222EA1042003F0F7FF314C2F
:101FB00020780025012601280BD02078022820D087
:101FC0002DA00090254B972225A1042003F0E6FFC9
:101FD000F8BD607850B133A00090204B862220A13C
:101FE000042003F0DBFF00F0E5F816E034A00090D9
:101FF0001A4B82221AA1042003F0D0FF00F092F8BD
:1020000017E0607858B136A00090144B912214A1CB
:10201000042003F0C3FF02F047FA6570F8BD38A052
:1020200000900E4B8D220EA1042003F0B7FF02F0AA
:10203000F1F96670F8BD00004B45593320707265A8
:1020400073736564202D20546F67676C65206D6520
:1020500061737572656D656E74000000B4F90208F5
:1020600048617264776172655C4B45595C4B657978
:102070002E630000B80000204B4559332069676E7D
:102080006F726564202D206E6F206D6561737572AF
:10209000656D656E74207061676520616374697633
:1020A0006500000053746F7020486561727420529F
:1020B000617465206D6561737572656D656E740020
:1020C0005374617274204865617274205261746542
:1020D000206D6561737572656D656E74000000003A
:1020E00053746F702054656D70657261747572659C
:1020F000206D6561737572656D656E74000000001A
:1021000053746172742054656D7065726174757278
:1021100065206D6561737572656D656E7400000094
:10212000FEE7000038B50C4C2078012812D00120C1
:1021300020702DF0B1F8E0610020A07007A00090A1
:102140000E4B3B220EA1042003F028FFBDE83840CF
:102150002CF008BB38BD00006400002048656172A7
:10216000742052617465206D6561737572656D656B
:102170006E742073746172746564000049F802081B
:102180004170706C69636174696F6E5C4170705FFF
:102190004755495C4755495F48656172745261749F
:1021A000655C4755495F4865617274526174652E7C
:1021B000630000000A4808B5017801290ED100210A
:1021C0000170417007A000900E4B46220EA1042022
:1021D00003F0E4FEBDE808402CF0C4BA08BD0000DE
:1021E0006400002048656172742052617465206D3E
:1021F0006561737572656D656E742073746F707050
:102200006564000064F802084170706C6963617471
:10221000696F6E5C4170705F4755495C4755495F17
:102220004865617274526174655C4755495F4865E1
:10223000617274526174652E630000001CB5174C06
:102240002078012829D12DF027F8E169401A41F2C0
:102250008831884211D2A0780A21401CC0B2B0FB5C
:10226000F1F2A07001FB1200002816D129F03CFB0E
:102270006070BDE81C402CF075BA0220207029F077
:1022800033FB6070617806A0CDE900010D4B62223E
:102290000DA1042003F082FEEBE71CBD64000020CA
:1022A00048656172742052617465206D6561737553
:1022B00072656D656E7420646F6E653A20256420CA
:1022C00042504D007EF802084170706C6963617481
:1022D000696F6E5C4170705F4755495C4755495F57
:1022E0004865617274526174655C4755495F486521
:1022F000617274526174652E6300000008B52FA0EE
:102300000090344BD32234A1042003F047FE314F18
:102310004FF00008523F354D00F0C4FFE878002828
:1023200048D1002607EBC600044600F0EDF800286F
:102330003CD01E202CF026FC204600F0E5F818B911
:1023400034E00A202CF01EFC204600F0DDF80028C6
:10235000F7D1A079012804D0022812D0032822D175
:102360001FE023A01B4B00903A3B70222BA10420BE
:1023700003F014FE0120287085F80180FFF79AFC15
:1023800011E02BA0134B00902E3B772223A10420B9
:1023900003F004FE0220287085F80180FFF714FD89
:1023A00001E0FFF7FBFD64202CF0ECFB761CF6B29D
:1023B000032EB7D314202CF0E5FBADE74B65792055
:1023C000646574656374207461736B2073746172E7
:1023D00074656400D6F902084861726477617265B9
:1023E0005C4B45595C4B65792E630000B8000020BA
:1023F0004B4559312070726573736564202D204EF2
:102400006176696761746520746F204865617274D4
:1024100020526174652070616765000048617264D4
:10242000776172655C4B45595C4B65792E630000A2
:102430004B4559322070726573736564202D204EB0
:102440006176696761746520746F2054656D70658D
:1024500072617475726520706167650070B586B0D1
:102460000322002101202CF071FD23498860012105
:102470000D2000F0EBFF01218D03284600F0FEFF48
:1024800000248DF8044001268DF8076002208DF8A5
:1024900005008003009069461848FFF785F8C020C2
:1024A000009069461648FFF77FF869461548009581
:1024B000FFF77AF80E21032001F034F802A8FEF7A6
:1024C00059FE8DF80C400C208DF80D0002958DF80A
:1024D0000E6002A8FEF716FE28208DF810000520D9
:1024E0008DF811008DF812408DF8136004A800F0EB
:1024F00015FD06B070BD0000B800002000000240CD
:1025000000080240000C024010B5044681880068B3
:10251000FFF7ABF8E179884201D1012010BD00201E
:1025200010BD000002480021C1708170704700009A
:10253000B80000200348002101704170C170817013
:1025400070470000B8000020024908700020487061
:1025500070470000B800002070B506460948002406
:102560000188458820464D43214600F0C1FA00F01D
:1025700045FC03E0304600F00DFC641CAC42F9D38E
:1025800070BD0000D80300202DE9F0478246A2EB81
:102590000A00401C884686B2A3EB0800401C87B2A4
:1025A0000024DDF8209015E008EB040081B25046CD
:1025B00000F09EFA00F022FC002507E004FB065123
:1025C00039F8110000F0E6FB6D1CADB2B542F5D351
:1025D000641CA4B2BC42E7D3BDE8F087292000F018
:1025E000A5BB00002DE9F041F0212C232A252E4C1B
:1025F0004FF4A0722B2630B1012804D0022815D048
:10260000032813D022E00027A77121806280238154
:1026100065810028A6814FF0360003D000F086FBCC
:10262000C82011E000F082FB08200DE00127A7710F
:1026300022806180238165810228A6814FF03600C7
:102640002ED000F073FB682000F03CFB608900F0A6
:102650006DFB002000F036FB002000F033FB2088EB
:10266000401EC0F30F2000F02DFB2078401EC0B2AA
:1026700000F028FBA08900F059FB002000F022FBAD
:10268000002000F01FFB6088401EC0F30F2000F008
:1026900019FBA078BDE8F041401EC0B200F012BBAB
:1026A00000F044FBA820CFE7D80300202DE9FE4F1F
:1026B000161ACDE900104FF000085D1A47464FF09A
:1026C000FF30002E02DD4FF0010102E003D14FF098
:1026D00000018B4602E08346C6F10006002D02DDB4
:1026E0004FF0010002E003D14FF00000824602E00B
:1026F0008246C5F10005AE4201DD344600E02C46BD
:10270000601C4FF00009029018E0009881B2019817
:1027100080B200F019F8B0442F44A04504DD0198C0
:10272000A8EB040858440190A74203DD00983F1B22
:102730005044009009F101001FFA80F9029989457F
:10274000E3DDBDE8FE8F000010B500F0D1F900F028
:1027500055FB03488088BDE8104000F01BBB00001B
:10276000C40000202DE9FC5F8046002514460320AC
:102770000F46A0EB440649E0381B81B208EB050A7E
:1027800001901FFA8AF0FFF7DFFF781B81B208EB98
:10279000040900901FFA89F0FFF7D6FF07EB050B3D
:1027A0001FFA8BF11FFA89F0FFF7CEFF07EB040940
:1027B0001FFA89F11FFA8AF0FFF7C6FFA8EB050A96
:1027C0001FFA89F11FFA8AF0FFF7BEFFA8EB040990
:1027D0001FFA8BF11FFA89F0FFF7B6FF019881B25B
:1027E0001FFA8AF0FFF7B0FF009881B21FFA89F054
:1027F000FFF7AAFF6D1C002E03DA06EB8506B61D57
:1028000004E0281B06EB8006641E0A36A542B3DDF1
:10281000BDE8FC9F10B5144600F06AF90348214654
:102820000089BDE8104000F0EFBA0000D803002096
:102830002DE9FC410121072000F008FE01258DF85B
:1028400004500024F0208DF80640DFF888820090C4
:102850008DF8074002268DF8056069464046FEF770
:10286000A3FEF0214046FEF70AFF10209A4F009089
:1028700069463846FEF798FE10213846FEF7FFFEFF
:10288000202000908DF804408DF8075069463846A6
:10289000FEF78AFE8DF804508DF806408DF807404B
:1028A0008E4C00958DF8056069462046FEF77CFE4B
:1028B00001212046FEF7E3FE40214046FEF7DFFE01
:1028C000012007F0DBF940214046FEF7D5FE0A2043
:1028D00007F0D4F940214046FEF7D1FE782007F0FA
:1028E000CDF9CF2000F022FA002000F0EBF9C12052
:1028F00000F0E8F9302000F0E5F9ED2000F016FADC
:10290000642000F0DFF9032000F0DCF9122000F071
:10291000D9F9812000F0D6F9E82000F007FA8520E7
:1029200000F0D0F9012000F0CDF97A2000F0CAF9CA
:10293000CB2000F0FBF9392000F0C4F92C2000F086
:10294000C1F9002000F0BEF9342000F0BBF90220EC
:1029500000F0B8F9F72000F0E9F9202000F0B2F912
:10296000EA2000F0E3F9002000F0ACF9002000F0CC
:10297000A9F9C02000F0DAF9212000F0A3F9C12064
:1029800000F0D4F9112000F09DF9C52000F0CEF937
:10299000312000F097F93C2000F094F9C72000F0B6
:1029A000C5F99F2000F08EF9362000F0BFF908200D
:1029B00000F088F93A2000F0B9F9552000F082F9CA
:1029C000B12000F0B3F9002000F07CF91B2000F0EA
:1029D00079F9B62000F0AAF90A2000F073F9A220D4
:1029E00000F070F9F22000F0A1F9002000F06AF97F
:1029F000262000F09BF9012000F064F9E02000F0AF
:102A000095F90F2000F05EF9202000F05BF91D2001
:102A100000F058F90B2000F055F9102000F052F9A1
:102A20000A2000F04FF9492000F04CF9A92000F0ED
:102A300049F93B2000F046F90A2000F043F915203F
:102A400000F040F9062000F03DF90C2000F03AF9C2
:102A5000062000F037F9002000F034F9E12000F002
:102A600065F9002000F02EF91F2000F02BF922203C
:102A700000F028F9042000F025F90F2000F022F9D9
:102A8000052000F01FF9362000F01CF9462000F068
:102A900019F9462000F016F9052000F013F90B2073
:102AA00000F010F9092000F00DF9332000F00AF9C8
:102AB000392000F007F90F2000F004F9112000F090
:102AC00035F9782007F0DAF8292000F02FF9BDE871
:102AD000FC810000000002400008024000040240A7
:102AE0000246012000E05043491EC9B2FBD27047A4
:102AF00070B50B4E05460C46708900F017F9280A90
:102B000000F0E0F8E8B200F0DDF8B08900F00EF96E
:102B1000200A00F0D7F8E0B2BDE8704000F0D2B86B
:102B2000D80300202DE9FF5F1D460C468A46580752
:102B300000D0012000EBD500690810FB01F0203A1D
:102B400000F0FF09D0B20026DFF898B0029044E010
:102B50000C2D11D0102D14D0182D40D102982249DF
:102B600000EBC00001EB80004FF00008875D3806E5
:102B70000CD51E4882880DE002981D4900EB4000EC
:102B8000F0E71C49029801EB0010EDE70E9828B918
:102B90001648C28821460098FFF73CFE7806070ECB
:102BA000641CBBF80200A4B2A04218D9A4EB0A002E
:102BB000A84209D100985446401C80B20090BBF84E
:102BC000001081420BD906E008F1010000F0FF0877
:102BD000B8F1080FCBD3761CF6B24E45B8D3BDE89A
:102BE000FF9F0000D80300204A040308C40000200F
:102BF000E6F902085AFE02082DE9FF4F81B00026CF
:102C0000DDF838A01D46934681463446B0464FEA6B
:102C10005A0727E0281B401EC1B20A20FFF760FFB9
:102C2000BBFBF0F00A21B0FBF1F201FB120026B968
:102C3000691E8C4201DA48B101263030C2B207FB6E
:102C4000049080B25346CDF8008006E007FB049064
:102C500080B253462022CDF800800299FFF762FF30
:102C6000641CE4B2AC42D5D305B0BDE8F08F2DE9C9
:102C7000F84F044600F0FF0910190D46DDE90AB6C9
:102C80001FFA80F8581987B24FF0000A12E0444545
:102C900003D305EB0B004C4685B2BD420FD25B4619
:102CA00029462046CDF800A0FFF73CFF04EB5B006F
:102CB00084B2761C3278A2F120005E28E7D9BDE804
:102CC000F88F00002DE9F041164E054610213046E0
:102CD000FEF7D2FC20213046FEF7D1FCDFF8488019
:102CE00000244FF6FF7728064FF01001404602D52A
:102CF000FEF7C5FC01E0FEF7BFFC07EA45058021B1
:102D00003046FEF7B9FC80213046FEF7B8FC641C63
:102D1000E4B2082CE7D33046BDE8F0411021FEF7BD
:102D2000AEBC000000000240000802402DE9F04166
:102D3000164E054610213046FEF79EFC20213046F7
:102D4000FEF79AFCDFF8488000244FF6FF7728064C
:102D50004FF01001404602D5FEF791FC01E0FEF76E
:102D60008BFC07EA450580213046FEF785FC802173
:102D70003046FEF784FC641CE4B2082CE7D33046EE
:102D8000BDE8F0411021FEF77ABC000000000240CF
:102D9000000802402DE9F041164E0546102130464C
:102DA000FEF76AFC20213046FEF769FCDFF8488018
:102DB00000244FF6FF7728044FF01001404602D55B
:102DC000FEF75DFC01E0FEF757FC07EA45058021B0
:102DD0003046FEF751FC80213046FEF750FC641C63
:102DE000E4B2102CE7D33046BDE8F0411021FEF7E5
:102DF00046BC000000000240000802400148008973
:102E0000FFF794BFD803002010B50C46FFF78EFFE4
:102E10002046BDE81040FFF7BDBFFEE77CB50121AD
:102E20000C2000F013FB01258DF8045000248DF8D0
:102E300006408DF8074002208DF805004FF49050B1
:102E4000104E009069463046FEF7AEFB0820009019
:102E500069460D48FEF7A8FB28028DF80440009053
:102E60008DF8075069463046FEF79EFB2903304631
:102E7000FEF705FC012000F047F8002000F03CF8C8
:102E80007CBD000000080240000C02404FF480713D
:102E90000148FEF7EABB000000080240002000F0F5
:102EA00033B8012000F030B82DE9F0410024064687
:102EB00025464FF0800800BF28FA05F707EA06000C
:102EC00000F012F8012000F017F8FFF7DFFF0128EB
:102ED00000D13C43002000F00FF86D1CEDB2082D2E
:102EE000EAD32046BDE8F081024608210148FEF7FA
:102EF000C8BB0000000C024002464FF400710148BC
:102F0000FEF7BFBB0008024002464FF48051014863
:102F1000FEF7B7BB000802407047000030B50F2233
:102F2000C47801780123FCB1144C246801F1E0213C
:102F300004F4E064C4F5E064C4F30724C4F10405B8
:102F4000E2404478AC408578154025432A0181F859
:102F50000024007800F01F018B404009800000F140
:102F6000E020C0F8003130BD01F01F008340480967
:102F7000800000F1E020C0F8803130BD0CED00E0B1
:102F80000249084302490860704700000000FA0542
:102F90000CED00E0FEB500248DF800400121062074
:102FA00000F054FA022001908DF808408DF80A4094
:102FB00003208DF8090001258DF80B5001A9174851
:102FC000FEF7F2FA680301908DF8085001A9144841
:102FD000FEF7EAFAFDF728FF124EC6F8B442642065
:102FE00006F52D7606F04AFE3560642006F046FEB2
:102FF000012000F011F9012269464FF4506000F001
:1030000019F89DF8001008A001F0FCFB9DF80000E5
:10301000802801D00120FEBD0020FEBD000402403A
:1030200000080240000041424354502049443A25E0
:10303000780D0A002DE9F04115460E460446FDF7CD
:103040007FFFB220FDF758FFFDF7B4FF200AFDF720
:1030500053FFFDF7AFFFE0B2FDF74EFFFDF7AAFF0C
:10306000FDF76EFFB320FDF747FFFDF7A3FF002438
:103070006F1E09E0BC4201D0012000E00020FDF7F6
:103080000DFF3055641CE4B2AC42F3D3BDE8F0410F
:10309000FDF774BF2DE9F147564E00242DED048B4A
:1030A0004FF00A0981B03078DFF84C81401CC0B283
:1030B000B0FBF9F209FB12012746307009B10A286A
:1030C00077D2012205A90020FFF7B4FF9DF8140074
:1030D000C10672D000F01F0040F0C000454688F8DD
:1030E000200001279FED458B9FED469B95F8200022
:1030F00007FA04F108424FD044480422694630F8E8
:103100001400FFF797FF95F830009DF80210C007F4
:103110009DF8030000EB012022D0FDF754FA53EC98
:10312000182BFDF7DEF9FDF75BFA05EB440AAAF868
:1031300016009DF801009DF8001000EB0120FDF73E
:1031400042FA53EC192BFDF7CCF99FED311B53ECF0
:10315000112BFDF7C3F9FDF743FAAAF80C001BE0A9
:10316000FDF731FA53EC182BFDF7BBF9FDF738FAF0
:1031700005EB440AAAF80C009DF801009DF8001028
:1031800000EB0120FDF71FFA53EC192BFDF7A9F90D
:10319000FDF726FAAAF81600641CE4B2052CA5D3A4
:1031A0000127A989002019B9E98A09B98DF8140005
:1031B00030709DF81400C00610D198F82000010668
:1031C00002D520F0800007E04FF6FF71A8F80C1040
:1031D000A8F8161000F0E00088F820003078F028F9
:1031E00001D986F8009001B03846BDEC048BBDE8EB
:1031F000F8870000D4000020DC0000207B14AE47DC
:10320000E17AD43FD881734694F6D23F7C1203080A
:10321000000000000000894008B500218DF8001072
:1032200010B180208DF80000012269464FF45060F3
:1032300000F001F808BD2DE9F04116460F4604469E
:103240000025FDF77DFEB220FDF756FEFDF7B2FE2C
:10325000200AFDF751FEFDF7ADFEE0B2FDF74CFE92
:10326000FDF7A8FE002408E0385DFDF745FEFDF7F8
:10327000A1FE050003D1641CE4B2B442F4D3FDF70F
:103280007DFE2846BDE8F08110B54FF4804104482A
:10329000FEF7EBF908B1002010BD012010BD0000C1
:1032A000000C0240F8B5254C00260125A07830B16D
:1032B00001280DD0022817D0032808D129E00021C9
:1032C000A0682BF0E5FE012801D1A570E670F8BDDD
:1032D0001E202BF057FCFFF7D7FFD0B12BF0DCFFFF
:1032E00060600220A070F8BDFFF7CEFF48B12BF060
:1032F000D3FF6168401AB0F5FA6F1CD3E07850B183
:1033000014E00FA00090144BB52214A1042002F089
:1033100045FEA670F8BD16A000900F4BBB220FA172
:10332000042002F03BFEFEF709FDE5703220BDE807
:10333000F8402BF027BC0A20F9E70000B800002075
:10334000506F776572206B65792073686F72742097
:103350007072657373000000C0F9020848617264FE
:10336000776172655C4B45595C4B65792E63000053
:103370004C6F6E672070726573732064657465634B
:10338000746564202D2073686F77696E6720706F95
:10339000776572206F666620554900004FF4004142
:1033A0000148FEF769B90000000C02402DE9F04128
:1033B00086B00121082000F049F801258DF804505D
:1033C00000248DF806400227DFF87C804FF4004689
:1033D0008DF8057000968DF8074069464046FEF767
:1033E000E3F831464046FEF74AF901218E033046A4
:1033F00000F044F88DF804408DF8075000968DF8E1
:10340000057069464046FEF7CFF80E21032000F014
:1034100089F88DF80C400C208DF80D0002968DF87F
:103420000E5002A8FDF76EFE28208DF81000052032
:103430008DF811008DF812408DF8135004A8FFF795
:103440006DFD06B0BDE8F081000C0240044A002981
:10345000116801D0014300E0814311607047000012
:1034600030380240044A0029116801D0014300E0CD
:10347000814311607047000040380240044A00292F
:10348000116801D0014300E08143116070470000E2
:103490004438024070B5204A1168204C11F00C01EC
:1034A00004D06610042903D0082903D004601BE06F
:1034B000066019E01849091F0B68C3F380550B68B3
:1034C00003F03F0315B1B6FBF3F301E0B4FBF3F3F4
:1034D0000C680968C4F388146343C1F30141491CB3
:1034E0004900B3FBF1F1016011680F2303EA1111E8
:1034F0000B4B5C5C0168E14041601468072505EAFC
:1035000094241C5D21FA04F48460126805EA5232A6
:103510009A5CD140C16070BD083802400024F400BC
:103520001001002010B58A0721F003040849130F89
:1035300021440F22D1F808489A409443C1F8084822
:10354000D1F8082898400243C1F8082810BD0000AF
:10355000003001400CB500202749019000900A6816
:1035600042F480320A604FF4A0430A6802F4003249
:103570000092019A521C0192009A12B9019A9A4241
:10358000F3D10A68920334D5012000901A484030E4
:10359000026842F0805202601848026842F44042D9
:1035A00002601548083002680260026842F4004276
:1035B0000260026842F4A0520260031F104A1A60BF
:1035C0000A6842F080720A600A689201FCD50D4ACE
:1035D00040F205711160016821F00301016001688A
:1035E00041F0020101600168C1F381010229FAD1B1
:1035F0000CBD00900CBD000000380240007000407F
:1036000008544007003C02404FF0E02104280869BC
:1036100003D020F004000861704740F00400FAE78E
:1036200010B52BF02BFE012803D0BDE810402BF085
:1036300077BC10BD124810B5016841F470010160FB
:103640001048016841F0010101600E4A0021083272
:10365000116002680C4B1A400260031D0B4A1A608D
:10366000026822F48022026006480C300160FFF7F5
:1036700071FF03494FF000608039086010BD000001
:1036800088ED00E000380240FFFFF6FE1030002415
:103690000029018802D041F0800101E021F0800181
:1036A000018070470029018802D041F0010101E04A
:1036B00021F0010101807047002A828901D00A436C
:1036C00000E08A438281704770B5028C22F48072D8
:1036D0000284028C8488838B0D8823F073031D433E
:1036E00022F400738E894FF6FF7202EA06261E430B
:1036F0004B8802EA03233343104EB04202D0104EEF
:10370000B04215D123F40066CB8924F4405402EA78
:103710000323334323F480668B8802EA0323334375
:103720000E8A02EA061626434C8A02EA041434433F
:10373000848085838968C163038470BD0000014073
:1037400000040140828B22F008020A438283704702
:10375000002101804180818081608181C18101825D
:103760004182704730B50288164B174C98420DD0F5
:10377000A0420BD0B0F1804F08D0144DA84205D024
:10378000134DA84202D0134DA84203D122F0700578
:103790004A882A43104DA84206D0104DA84203D0B3
:1037A00022F440750A892A4302804A68C2620A8864
:1037B0000285984201D0A04201D1897A0186012177
:1037C000818230BD0000014000040140000400403F
:1037D00000080040000C00400010004000140040B1
:1037E0004FF0FF31416000210180018141808172F1
:1037F000704700002DE9FF4F83B00E46DDE910A9A8
:103800004E4907464FF47840DDF8508008804CA0C0
:103810001024CDE900404B4D9346A0216B882A88A7
:103820002820FFF724FA48A0CDE900406B882A88B9
:10383000A0217820FFF71BFA44A0CDE900406B8857
:103840002A88B4212820FFF712FA41A0CDE90040D0
:103850006B882A88B4217820FFF709FA3DA0CDE9CA
:1038600000406B882A88C8212820FFF700FA3AA078
:10387000CDE900406B882A88C8217820FFF7F7F946
:1038800036A0CDE900406B882A88DC212820FFF78C
:10389000EEF933A0CDE900406B882A88DC2178203E
:1038A000FFF7E5F92FA0CDE900406B882A88F021C9
:1038B0002820FFF7DCF904233A46A0214020009499
:1038C000FFF79AF904233246A02190200094FFF7D5
:1038D00093F904235A46B42140200094FFF78CF951
:1038E00004230094B4219020069AFFF785F904235D
:1038F0005246C82140200094FFF77EF904234A462F
:10390000C82190200094FFF777F904230094DC216C
:103910004020129AFFF770F904230094DC219020D4
:10392000139AFFF769F903234246F02160200094BF
:10393000FFF762F907B0BDE8F08F0000C800002073
:1039400078313A00D803002079313A0078323A00D1
:1039500079323A0078333A0079333A0078343A00D1
:1039600079343A006661632069733A002DE9F04FBB
:10397000DFF804B41F202DED0C8B89B04FF6FF77D4
:10398000002425465E46ABF80000FC480780384618
:10399000FEF7E2FD4FF47848A6F800803846FEF7BF
:1039A000DBFDF748A246A6F800A001684FF0100919
:1039B000CDE9009128216423A0220846FFF757F99A
:1039C00014214246084600F0BDFAEE4E86F820A0CB
:1039D0009FEDED0A4FF0010886ED090A9FEDEB8B94
:1039E0009FEDEC9B9FEDEDBBDFF8B8A37168012064
:1039F000884796F82000B8EB901F48D120F040008F
:103A000086F8200005A8B18920F8241000EB840076
:103A1000641C0025F18AE4B24180012C06D0022CFE
:103A200011D0032C1FD0042C31D13FE014213A4691
:103A3000084600F087FABAF800004FF478421438CC
:103A400080B2142121E0BAF800003A46143880B25E
:103A5000142100F077FABAF802004FF478421438D3
:103A600081B2142011E0BAF802003A46143881B24B
:103A7000142000F067FABAF802004FF478421438C4
:103A800081B2BAF80000143880B200F05BFA0A2064
:103A900006F0F4F86D1CADB2B5F57A7FA6D900F04A
:103AA00089FA09B0BDEC0C8BBDE8F08FBDF81400AD
:103AB000BDF81810411A00D54942BDF81600BDF8EE
:103AC0001A20801A00D54042494340430844FCF77D
:103AD0007AFD41EC100B00F0B9FE51EC100BFCF735
:103AE0007FFD84B2BDF81C00BDF82010401A00D53F
:103AF0004042BDF81E10BDF82220891A00D5494267
:103B0000404301FB0100FCF75EFD41EC100B00F0AF
:103B10009DFE51EC100BFCF763FD00EE104A80B2E5
:103B20000090F8EE400A00EE100AB8EE401A80EE5F
:103B3000810A10EE100AFCF76CFD41EC1A0B53ECF5
:103B4000182BFCF779FD7DD353EC192B51EC1A0B94
:103B5000FCF78AFDF7D3002C74D000980028FBD026
:103B6000BDF81400BDF81C10411A00D54942BDF83B
:103B70001600BDF81E20801A00D54042494340433C
:103B80000844FCF720FD41EC100B00F05FFE51EC07
:103B9000100BFCF725FD84B2BDF81800BDF820100D
:103BA000401A00D54042BDF81A10BDF82220891AEB
:103BB00000D54942404301FB0100FCF704FD41EC04
:103BC000100B00F043FE51EC100BFCF709FD00EE6A
:103BD000104A80B2F8EE400A00EE100AB8EE401A21
:103BE00080EE810A10EE100AFCF713FDB0EE48CA11
:103BF000F0EE68CA41EC1A0B53EC1C2BFCF71CFDD1
:103C000060D3B0EE49DAF0EE69DA53EC1D2B51ECDB
:103C10001A0BFCF729FD55D3BDF81800BDF81C1090
:103C2000401A00D54042BDF81A10BDF81E20891A6E
:103C300000D54942404301FB0100FCF7C4FC41ECC4
:103C4000100B00E064E000F001FE51EC100BFCF7FB
:103C5000C7FC84B2BDF81400BDF82010411A00D58D
:103C60004942BDF81600BDF82220801A00D5404216
:103C7000494340430844FCF7A6FC41EC100B00F01C
:103C8000E5FD51EC100BFCF7ABFC00EE104A80B2E6
:103C9000F8EE400A00EE100AB8EE401A80EE810AF3
:103CA00010EE100AFCF7B5FC41EC1A0B53EC1C2B80
:103CB000FCF7C2FC06D353EC1D2B51EC1A0BFCF79E
:103CC000D3FC71D2BAF80210BAF8000014391438D3
:103CD000002489B280B23A4600F034F914214FF43E
:103CE0007842084600F02EF953EC1B2B51EC1A0BCE
:103CF000FCF7F7FBFCF774FC80B2BDF82210BDF8AE
:103D00002030BDF81E20CDE90310CDE9012324E0C9
:103D1000BAF80210BAF8000014391438002489B235
:103D200080B23A4600F00EF914214FF4784208466A
:103D300000F008F953EC1B2B51EC1A0BFCF7D1FBEC
:103D4000FCF74EFC80B2BDF82220BDF82030BDF853
:103D50001E10CDE90320CDE90113BDF81C00009031
:103D6000BDF81A30BDF81820BDF81610BDF81400C3
:103D7000FFF740FD3AE617E0C8000020CA00002027
:103D800088120308DC0000200000000066666666FA
:103D90006666EE3FCDCCCCCCCCCCF03F0000000032
:103DA00000005940D8030020BDF81840BDF8143079
:103DB000F6EE001AE01A00EE100ABAF800005246B9
:103DC000B8EEC01AA0F1280100EE101AE118B8EE02
:103DD000C00AC0EE010A00EE101AB8EE401A00EE5A
:103DE000100AB8EE400AC6ED090A00EEC10AFDEE5F
:103DF000E00A20EE210ABDEEC00A10EE101AB185CD
:103E0000BDF81E40BDF81630E11A00EE101A5188B8
:103E10002344B8EEC01AA1F1280C00EE10CAB8EE87
:103E2000C02A82EE010A01EE103AB8EE412A01EEF4
:103E3000101AB8EE411A86ED0A0A00EE421A21EE77
:103E4000211ABDEEC11A11EE103AF38510EE903A28
:103E5000002B00DA5B42022B08DCBDEEC00A10EE3C
:103E6000103A002B00DA5B42022B2DDD1439143896
:103E7000002489B280B23A4600F064F814214FF46D
:103E80007842084600F05EF81DA1CDE90091BAF82D
:103E90000230BAF800201A212820FEF7E8FE96F832
:103EA000300048B15FF0000086F8300030B11948AA
:103EB00090210170D02105E00120F5E71548D021BF
:103EC00001709021417091E51F20ABF80000384649
:103ED000FEF742FB10A1CDE90091BAF80230BAF822
:103EE00000206E212320FEF7C2FE4FF47A7005F009
:103EF000C5FE00F0E5F93846FEF72EFBD1E50000DF
:103F00005450204E65656420726561646A757374EF
:103F100021000000D8000020546F756368205363AF
:103F20007265656E2041646A757374204F4B210081
:103F3000024600200146535C491C184480B21229F5
:103F4000F9D370472DE9F041044619480D460B4658
:103F5000028004F10D0082B2193880B2FEF7A6FB90
:103F600005F10D0083B2193881B222461046FEF7E2
:103F70009DFB6E1C04F10108B1B21FFA88F0FEF738
:103F8000E3FBB1B2661EB0B2FEF7DEFB6F1EB9B244
:103F90001FFA88F0FEF7D8FBB9B2B0B2FEF7D4FB37
:103FA00029462046BDE8F0410622FEF7DBBB0000B3
:103FB000C800002000B585B014226946002000F03A
:103FC000BCFBBDF80000A0F5B4415A3906D16846E3
:103FD000FFF7AEFFBDF81210814202D0002005B0FD
:103FE00000BD0F489DED010A80ED090A9DED020A12
:103FF00080ED0A0ABDF80C108185BDF80E10C18550
:104000009DF8103080F830309021001FD02213B17D
:104010000170427001E0027041700120DFE7000092
:10402000DC0000207CB500F05CFB3A4D3A4CA888DF
:10403000A0F5AA41103940D0A0F5C85163394FD03E
:1040400001211220FFF702FA4FF4007000900120C6
:104050008DF8040000248DF8064002252F4E8DF8BF
:1040600005508DF8074069463046FDF79DFA8020DF
:10407000009069463046FDF797FA69462848009552
:10408000FDF792FAA80200908DF804408DF80740E1
:1040900069463046FDF788FAE801009069463046E7
:1040A000FDF782FA1C491631A1F10A0000F0B6F8BA
:1040B000FFF780FF18B300207CBDFDF7E7FA68B179
:1040C000FEF768FF1748606014F8300FA97940F0D8
:1040D000800001F0010108432070ECE71248F2E78C
:1040E000FDF750F81148606094F83000A97940F06D
:1040F000800001F00101084384F83000DBE74FF64F
:10410000FF70FEF729FAFFF731FCFFF753FF01209C
:104110007CBD0000D8030020DC000020001002401D
:104120000004024095300008051800081513000827
:104130002DE9F04700271E4C3D463E46C4F89C72D0
:10414000C4F8A472DFF86CA0CAF8847204F527746E
:1041500000F040F9062005F097FD2660012005F0EB
:1041600093FD4FF00108C4F80080404605F08CFD37
:104170002660B14646464FF6FF78A4F5277400BF87
:1041800008EA4505C4F89C92012005F07DFDC4F8BD
:104190009C62D4F8200208B16D1CADB27F1CFFB246
:1041A000102FEDD32809CAF88462BDE8F08700001B
:1041B0000000424200804042FEB5064600256C46A3
:1041C0003046FFF7B5FF24F815006D1CADB2052D84
:1041D000F6D30020431C99B20CE000BF34F8102045
:1041E00034F81150AA4203D924F8105024F81120B1
:1041F000491C89B20529F1D398B20428EAD30021D9
:104200005FF0010034F81020401C114480B289B2E4
:104210000428F7D30320B1FBF0F0FEBD2DE9F041F7
:10422000074C06460D462078FFF7C6FF0746607824
:10423000FFF7C2FF378028800120BDE8F081000031
:10424000D80000207FB50C460546694602A8FFF756
:10425000E5FF00282FD001A903A8FFF7DFFF002802
:1042600029D0BDF80C30BDF80820934203D803F1E3
:104270003200824205D39A421FD802F132008342B3
:104280001BD2BDF80410BDF80000814203D801F133
:104290003206B04204D388420FD8323081420CD269
:1042A000D01840082880BDF80000BDF8041008446C
:1042B00040082080012004B070BD0020FBE7000012
:1042C00000B585B045F65A20ADF80000104890EDD5
:1042D000090A8DED010A90ED0A0A8DED020A818D21
:1042E000ADF80C10C18DADF80E1090F830008DF8BF
:1042F00010006846FFF71CFEADF81200002000F029
:1043000042FA14226946002000F0EDF905B000BD24
:10431000DC00002002462D4810B5D0F82C022C4CB1
:1043200040B194F82000010643D520F0800084F8C5
:10433000200045E0264800F116010C3012B1FFF7CD
:1043400081FF2AE0FFF77EFF38B3B4F92C0094ED2B
:10435000091A00EE100AA08900EE900AB8EEC00A11
:10436000F8EE600A01EE200ABCEEC00A10EE100A58
:10437000A081B4F92E0094ED0A1A00EE100AE08A2A
:1043800000EE900AB8EEC00AF8EE600A01EE200ACC
:10439000BCEEC00A10EE100AE08294F8200000067D
:1043A0000ED4C02084F82000A089A082E08AE08397
:1043B00006E00020A082E0834FF6FF70A081E0823B
:1043C00094F8200000F0800010BD00000000424280
:1043D000DC0000202DE9F04100240D4D0646274663
:1043E0004FF00108300602D5C5F8A48201E0C5F8F7
:1043F000A4727006060EC5F89C72012005F044FCFC
:10440000C5F89C82641CE4B2082CEBD3BDE8F081B3
:104410000000424238B50C4C2078012812D001200F
:1044200020702AF039FFA0620020607007A0009081
:104430000E4B3A220EA1042001F0B0FDBDE8384039
:104440002AF002BA38BD00008400002054656D7067
:1044500065726174757265206D6561737572656DE5
:10446000656E742073746172746564009DF802084F
:104470004170706C69636174696F6E5C4170705FEC
:104480004755495C4755495F54656D706572617465
:104490007572655C4755495F54656D7065726174EE
:1044A0007572652E630000000B4808B5017801297C
:1044B00011D1002101709FED090A114B80ED090A0D
:1044C00007A0009045220FA1042001F067FDBDE880
:1044D00008402AF0B9B908BD84000020000000009F
:1044E00054656D7065726174757265206D65617378
:1044F0007572656D656E742073746F70706564009D
:10450000BAF802084170706C69636174696F6E5C1F
:104510004170705F4755495C4755495F54656D7000
:10452000657261747572655C4755495F54656D705D
:10453000657261747572652E630000001FB51B4CB7
:104540002078012830D12AF0A7FEA16A401AB0F5E0
:10455000FA5F12D260780F21401CC0B2B0FBF1F2BA
:10456000607001FB120000281ED127F0D3F984ED02
:10457000090ABDE81F402AF067B90220207027F021
:10458000C9F984ED090A94ED090A10EE100AFCF746
:1045900040F8CDE9020106A000900C4B5D220CA171
:1045A000042001F0FBFCE4E71FBD000084000020B4
:1045B00054656D706572617475726520646F6E65A7
:1045C0003A20252E3166204300000000D6F802086C
:1045D0004170706C69636174696F6E5C4170705F8B
:1045E0004755495C4755495F54656D706572617404
:1045F0007572655C4755495F54656D70657261748D
:104600007572652E630000000029818902D041F493
:10461000005101E021F400518181704702460020E1
:1046200012880A4200D00120704700007FB504467E
:10463000008A0D4620F44051E88808432082A08972
:1046400041F20C618843A9882A8911436A8902438F
:104650001143A181A08A20F44071A8890843A08257
:104660006846FEF717FF1A48844202D01948844270
:1046700001D1039800E00298A189090400EBC00170
:1046800001EB0010296801D5490000E08900B0FB6A
:10469000F1F26420B2FBF0F109010B096FF018058B
:1046A0006B4302EB8302A3891D044FF0320306D54E
:1046B00003EBC202B2FBF0F000F0070005E003EBF1
:1046C0000212B2FBF0F000F00F00084320817FBD22
:1046D0000010014000140140C1F3080181807047BF
:1046E000FEE7FEF79BBB70B51546044628440E4610
:1046F000B0F5001F20D800F07BF8FEF7CFFB0220BA
:10470000FEF7D2FBC4F30740FEF7CEFBC4F307204D
:10471000FEF7CAFBE0B2FEF7C7FB002404E0305D01
:10472000FEF7C2FB641CA4B2AC42F8D3FEF7B9FB9F
:10473000BDE8704000F046B870BD70B5154604463F
:1047400028440E46B0F5001F1CD8FEF7A7FB032037
:10475000FEF7AAFBC4F30740FEF7A6FBC4F307204D
:10476000FEF7A2FBE0B2FEF79FFB002404E0FF206F
:10477000FEF79AFB3055641CAC42F8D3BDE870409C
:10478000FEF78FBB70BD10B50446B0F5001F17D201
:1047900000F02EF8FEF782FB2020FEF785FBC4F325
:1047A0000740FEF781FBC4F30720FEF77DFBE0B274
:1047B000FEF77AFBFEF775FBBDE8104000F002B88B
:1047C00010BD000010B5FEF769FB0520FEF76CFB7D
:1047D000064C01E0641E04D0FF20FEF765FBC00715
:1047E000F8D1BDE81040FEF75CBB0000A0860100D8
:1047F00010B5FEF753FB0620FEF756FBBDE8104050
:10480000FEF74FBB0FB4054B10B503A9044A02983D
:1048100002F000F910BC5DF814FB0000291D01082E
:10482000D00300200FB4084B10B504A902AA0398C6
:1048300002F0F0F8044602A9002002F06EFC2046C7
:1048400010BC5DF814FB00001B71000800B52DEDD5
:10485000048BB0EE409AF0EE609A83B051EC190BE5
:10486000FCF72DF841EC180B18EE100A18EE901A10
:104870008DED008B002818BF0120084320F0004078
:10488000C0F17F6000F1E040C00F14D019EE101AA3
:1048900019EE900A8DED009B002918BF01210843F5
:1048A00020F00040C0F17F6000F1E040C00F04BF85
:1048B000012000F017F8B0EE480A03B0F0EE680AE5
:1048C000BDEC048B00BD02E008C8121F08C1002A1D
:1048D000FAD170477047002001E001C1121F002A81
:1048E000FBD170470149086070470000D4030020E5
:1048F00070B5044600256FF02F0608E02068411CC3
:104900002160007805EB850106EB41014518206820
:10491000007800F0C7F80028F0D1284670BD0000EC
:104920002DE9FF5F82B00021DDE90430020DDDF8E2
:1049300040B0034318D044F61050A2F2FF32424375
:104940001514119801281FD0A5EB0B00401C5FEA3D
:10495000000A4FF000064E4FDFF83891B04650463F
:1049600015D5CAF1000413E0119801244AA30128C7
:1049700001D16FEA0B010298119AC0E90031C0E938
:10498000024206B0BDE8F09FCBF10000DFE704462D
:104990000021404A491842EB0450CDE9001012E0D2
:1049A000E00707D032463B4640464946FBF799FDB3
:1049B0008046894632463B4610461946FBF791FD34
:1049C00006460F466410002CEAD1DDE90401DDE95A
:1049D0000023BAF1000F06DAFBF783FD42464B468F
:1049E000FBF77FFD05E0FBF7FBFE42464B46FBF77E
:1049F000F7FE04460E460022284BFBF735FE03D88F
:104A00004FF0FF30014607E00022254B204631469B
:104A1000FBF7C0FCFBF7A4FF102409E0002C0ADB25
:104A20000A220023FBF72AFC039B30321A55641E2E
:104A300050EA0102F2D1641C039AC4F11103144438
:104A4000119A012A03D0012208430DD10AE008433C
:104A500004D000204FF0110B119072E7A3EB0B056F
:104A60006D1E0DE05B4504DD4FF0000205F1010510
:104A700004E003DA4FF00002A5F10105002AECD0B2
:104A800002981199C0E90231C0E9004579E70000B8
:104A9000000014400000F03F300000000000F04330
:104AA0000000E03F3038092801D80120704700207D
:104AB0007047000010B54021074801F0EDF90022D1
:104AC0001421064822F036FD054CA06003F002F8E0
:104AD0000020207010BD00007C0500207D7B0008B8
:104AE000D402002070B5B1F90030B2F90040A34201
:104AF00000DC23460380B1F90250B2F90240A5421E
:104B000000DD2C464480B1F90460B2F90450AE4295
:104B100000DA35468580B1F90610B2F906209142D7
:104B200000DB1146C1800120AB4201DC8C4200DD7C
:104B3000002070BDF8B50D460446B0F90000B1F98B
:104B400000101646884247DBB4F90210B5F902207E
:104B5000914241DBB4F90410B5F9042091423BDCE9
:104B6000B4F90610B5F90620914235DC96B3ADF8DC
:104B700000006088ADF8020032466946284600F021
:104B800099F8002827D0A088ADF800006088ADF81B
:104B9000020032466946284600F08CF800281AD0F8
:104BA0002088ADF80000E088ADF802003246694682
:104BB000284600F07FF800280DD0A088ADF800004E
:104BC000E088ADF8020032466946284600F072F8E7
:104BD000002800D00120F8BD0020F8BDB0F9002069
:104BE000B1F904309A4213DCB0F90420B1F9003075
:104BF0009A420DDBB0F90220B1F906309A4207DC87
:104C0000B0F90600B1F90210884201DB01207047BB
:104C100000207047F8B50D460446B0F90400B1F91C
:104C200000101646884243DBB4F90600B5F90210BD
:104C300088423DDBB4F90000B5F90410884237DC46
:104C4000B4F90210B5F90620914231DC76B3ADF823
:104C500000006088ADF8020032466946284600F040
:104C600029F818BBA088ADF800006088ADF80200F4
:104C700032466946284600F01DF8B8B92088ADF8DC
:104C80000000E088ADF8020032466946284600F090
:104C900011F858B9A088ADF80000E088ADF802001E
:104CA00032466946284600F005F808B10020F8BDF4
:104CB0000120F8BD2DE9FC4114460E46B1F9002053
:104CC000B0F9001005468A423ADBB5F90400824289
:104CD00036DCB6F90270B5F90220974230DBB5F93F
:104CE00006309F422CDC002C75DD401A9A1A401CBD
:104CF000521C00B212B200EBD07002EBD272401024
:104D00005210904200DB1046844200DD0446ADF8AC
:104D10000010288800222044ADF804006888ADF80F
:104D20000200688831462044ADF806006846FFF767
:104D3000C1FF40B1BDF804002044ADF804003FE0DD
:104D40000020BDE8FC81E8880022001BADF80200CD
:104D5000E888ADF8060031466846FFF7ABFF28B19A
:104D6000BDF804002044ADF8040011E0A88800223A
:104D7000001BADF80000A888ADF804003146684675
:104D8000FFF798FF50B1BDF80000001BADF8000020
:104D9000BDF80200001BADF8020016E06888ADF80F
:104DA0000200688800222044ADF8060031466846BB
:104DB000FFF780FF70B1BDF80000001BADF80000E8
:104DC000BDF806002044ADF80600314668461FF0E5
:104DD0006DFCB6E7FFE70120B3E710B5B1F900407D
:104DE000B2F900309C4200DA23460380B1F9024058
:104DF000B2F902309C4200DA23464380B1F9044004
:104E0000B2F904309C4200DD23468380B1F90610DC
:104E1000B2F90620914200DC1146C18010BD0000AD
:104E2000FEB5054622F022FB00267C4C0746009684
:104E30000DB1E86801E013F017F8606000691FF039
:104E400021FB6068406908B11FF01CFB6068C06905
:104E50001FF018FB6068006A1FF014FB60680169AE
:104E6000F1B31FF0A3FE1FF01FFE6068B0F85011F1
:104E700099B30168097C890715D513F041F9401EE3
:104E800005B2606813F008F8401E03B20022114614
:104E900001A8009510F0FFFC606801A90268926B00
:104EA000516005F0CDFE60684FF4807130301AF02B
:104EB0009DFE6068202100F598701AF097FE6068EA
:104EC000A0F85061384622F0CBFA00906068006884
:104ED000436A13B12268009998471AF0EBFB00E08F
:104EE00007E000F0F9F800F0CBF84D4D6F6967B1BD
:104EF00052E0A0F850614BA00090514B4FF49972D2
:104F000050A1022001F04AF8FEBD12F0ADFF12F0F0
:104F1000D9FF18F0FDFF074600227F211FF04EF950
:104F200000221146104612F025FA0190BDF8041037
:104F3000002238461FF030F9FF221146104612F0C9
:104F400019FA0190BDF80410002238461FF025FA26
:104F50000022032138461FF0F7F9002203213846CA
:104F60001FF0E0F90022032138461FF0E1F900228A
:104F7000032138461FF0E2F90022032138461FF0D2
:104F800006FA3AA1384619F0A1FF00231A46062175
:104F900038461BF03FFA6F61286822F061FAB0F5DD
:104FA000967F0CD2206841F288318842ACD968687B
:104FB000009908446860A868401CA860FEBD22F003
:104FC00055FA286060684FF47A7140680068B1FB58
:104FD000F0F0696809B901216960A968E1B14FF48D
:104FE0007A7251436A68B1FBF2F46E60AE6084423B
:104FF00000D90446286920442861E868401CE8601C
:1050000022F00EFBC0F1640303B022463846BDE82F
:10501000F04017A119F0E2BF0446E6E76001002066
:10502000E80300207468657265206973206E6F2044
:105030006163746976652073637265656E00000054
:10504000001603084D6964646C655C4C56474C5C03
:105050004755495C6C76676C5C7372635C636F7216
:10506000655C6C765F726566722E63003F000000BF
:105070002575204650530A25752525204350550097
:1050800070B50A4D002400BFC4EBC40655F82600D5
:1050900008B11AF033FC05EB86001C211AF0A6FDBE
:1050A000641CE4B2042CEFD370BD0000580600204D
:1050B000084949680AE04A68824202D00A68824286
:1050C00003D10A7E42F001020A7649690029F2D131
:1050D000704700003401002070470000042101489F
:1050E00000F0DABE700500201C21014800F0D4BE9B
:1050F000880500202DE9FF5F0446DDE90E0613B99F
:10510000B0F5807F7ED0B6F900504FF0FF376D428A
:10511000454307EB25252DB22580B6F902C0CCF119
:10512000000C0CFB00FC07EB2C273FB26780B6F9A4
:1051300000C0A1EB0C0141434FF0020C0CEB21210C
:1051400009B2A180B6F90280A2EB080242430CEB3F
:10515000222000B2E080002B7ED04FF00A0A93FBA1
:10516000FAF5684200EB800003EB400705F1010906
:1051700028B222F08DFD00900FFA89F022F088FD10
:1051800083465A3528B222F083FD804609F15A0041
:1051900000B222F07DFD0146009AC7F10A0000FB33
:1051A00002F300FB08F00BFB073301FB070193FB45
:1051B000FAF291FBFAF04FEA601AB4F90010B4F970
:1051C00002000AFB01FCCDF80CC05511378805FB25
:1051D00010C207EBA2220FFA82F905FB01F2BB46CF
:1051E000029277880AFB002107EBA1210BB2B4F9E8
:1051F0000410BE460AFB01FC05FB10C20BEBA22209
:1052000016B200E02FE005FB01F7CDE9007CB4F910
:105210000680DDF80CC00AFB007005FB18C1DDF844
:1052200004C0009F05FB18C5029A0AFB087C0AFB14
:1052300008220BEBA1210EEBAC270EEBA02009B24C
:105240000EEBA2220BEBA5250FFA87FC00B212B2DF
:105250002DB24F46494500E00EE000DA0F46B54258
:1052600016DAA84615E000202080491E6080A18043
:10527000521EE280BDE8FF9F32882A442280728855
:105280003A44628032881144A180718808444FE01A
:10529000B046474504DA4F46494506DA0F4604E072
:1052A000B54201DA2F4600E0374627804F46494590
:1052B00000DD0F46B54201DDA84600E0B046474597
:1052C00003DD4D46494505DC01E0B54201DD2946D7
:1052D00000E03146A1809A4201DA154600E01D4601
:1052E000844501DA614600E001468D4205DA9A42C2
:1052F00001DA114606E0194604E0844501DA614608
:1053000000E0014661809A4201DD114600E0194645
:10531000844501DD654600E00546A94205DD9A4267
:1053200001DD104604E0184602E0844500DD6046D9
:10533000E0809FE72DE9FE4F0446D0F800B0B0F9B9
:105340000800E589081AB4F90A10511AD4E909329B
:10535000B5F5807F38D0A589ADB3A66B70434511F4
:105360004E437011266BE16A06FB05F701FB1077CF
:10537000694306FB001003EBA72902EBA02080463F
:105380000612B4F904004FEA2927B8424EDD002F77
:105390004CDBB4F90610B14248DD002E46DB94F830
:1053A00034104A0745D58A0704F1140322D400FBC0
:1053B000067045004FF0020A0BEB050152461846F5
:1053C0001AF0CAFB27E00DE0256BE66A05FB00F743
:1053D00006FB1177464305FB016003EBA70902EBCF
:1053E000A000CCE7A56B68434D4303EB601902EBCB
:1053F0006510C4E700FB067000EB40054FF0030AA0
:105400000BEB0501022218461AF0A6FBE81C5844D3
:1054100010F8010CA07594F83400C0071FD04FF4A9
:10542000FC60ADF80000A18A814218D10020BDE8DF
:10543000FE8F32B204F118002369CDE90102002584
:1054400039B2AA468B4616F0C7FF0090BDF800009F
:10545000A082DDE90102594616F056FFDAE7E07C4A
:1054600078B1A4F83C90A4F83E80A4F84070A4F869
:105470004260656484F848A02046BDE8FE4F00F015
:1054800002B80120D3E72DE9F04F044690F83C1014
:10549000D0F8009090F83E0087B04FF0FF367029AA
:1054A00007DAB4F940203546012A00D500258031BD
:1054B0000DE0902916DDB4F94020B4F9043001253F
:1054C000521C9A4200DB0025A1F27F114942C9B269
:1054D0008846702809DAB4F94210012900D500265F
:1054E000803010E00025FF21F2E790280DDDB4F9AF
:1054F0004210B4F906200126491C914200DB002627
:10550000A0F27F104042C7B201E00026FF27606989
:105510000090A07D0590002083468246049094F878
:105520003400400744D594F84810606C11FB050125
:105530004944022201A81AF00FFBA08894F84810F1
:1055400010FB01F0616C022206FB0011494403A824
:105550001AF002FBA18894F8480011FB00F1626C7C
:1055600006FB012210FB05901118022202A81AF076
:10557000F3FA94F83400800761D594F84800626C1F
:1055800010FB052300EB09010B4413F8013C0493C5
:10559000A38813FB00F306FB0322114411F801BC9E
:1055A00010FB0500111801EB090010F8010C45E093
:1055B000B4F84000B4F94220284401B204F11800C4
:1055C0008146236916F008FF0190B4F84200B4F94F
:1055D0004010304402B254F8103F484616F0FCFE2A
:1055E0000390608E2368304402B2208E284401B2BA
:1055F000484616F0F1FE029094F82400103C800713
:105600001DD5B4F9422034F8400F284401B2484671
:1056100016F07AFE04906088B4F90010304402B2AB
:10562000484616F071FE83466088304402B234F872
:105630004009284401B2484616F066FE824694F8B6
:10564000340042464546800735D5059810FB08F3DF
:105650000499C8F1FF0011FB0031C1F307211BFBC6
:1056600008F61AFB0060C0F3072011FB07F3C7F12F
:10567000FF0610FB06331B0AA375022907D8022870
:1056800003D8002007B0BDE8F08F002702E0022811
:1056900000D8FF270598022800D800220498022885
:1056A00000D8FF22BBF1020F00D80025BAF1020F8B
:1056B00003D8FF2501E0FF20A075EAB1FF2A04D03E
:1056C000DDE9000111F016FF0090BDB1FF2D17D0EC
:1056D000DDE902102A4611F00DFF049097B1FF2F6B
:1056E00005D001463A46009811F004FF0090BDF83D
:1056F0000000A0820120C5E70198E5E70298ECE7E9
:105700000398EAE7BDF81000F3E700002DE9F04741
:105710000446B0F908000A2700026062B4F90A00E2
:105720000002A062B4F90C1091FBF7F5684200EB9F
:10573000800001EB4006684205F1010800B222F04A
:10574000A7FA8246E84300B222F0A2FA8146C5F1E8
:105750005A0000B222F09CFA0546C8F15A0000B285
:1057600022F096FAC6F10A0101FB0AF3024609FB90
:105770000630694390FBF7F002FB061191FBF7F14D
:105780004011E06248112063A07C16F0D2FE94F82C
:10579000341060F3000184F83410A07C16F0B9FED8
:1057A00094F8341060F3410184F83410A07C04288C
:1057B00024D0052822D0062820D021F0040100BFE3
:1057C00084F8341021682162A16921F0E00160F3BE
:1057D0000401A08860F39421E08860F35F51A16127
:1057E000E0894FF4001101EB5001B1FBF0F0A06330
:1057F000FF20A075208AA082BDE8F08741F0040157
:10580000DEE700002DE9F84315460E460746154C25
:1058100021F02CFE80462B4632463946204617F0B2
:1058200027FC20B10020A062E06990B118E00EA032
:105830000090184B7D2218A1022000F0AFFB2C2114
:1058400020461AF0D3F94FF00040A0620020BDE8D6
:10585000F883404621F004FEE06108B90120E061D0
:105860002046F4E7AC050020496D6167652064724D
:1058700061772063616E6E6F74206F70656E207447
:10588000686520696D616765207265736F75726305
:1058900065000000E21603084D6964646C655C4CA9
:1058A00056474C5C4755495C6C76676C5C73726319
:1058B0005C647261775C6C765F696D675F6361637E
:1058C00068652E63000000000EB514210D4800F03D
:1058D000E3FA17F04DFB40B10B4901600B49416001
:1058E0000B4981600B49C1600EBD0BA20EA112A035
:1058F0008DE80700184B402218A1032000F04EFB52
:10590000FEE7000094050020EDC5010805CB010865
:1059100055CE0108B9C501084F7574206F66206D1A
:10592000656D6F72790000006465636F6465722055
:10593000213D204E554C4C00417373657274656473
:105940002061742065787072657373696F6E3A2098
:1059500025732028257329000B1703084D696464FB
:105960006C655C4C56474C5C4755495C6C76676C83
:105970005C7372635C647261775C6C765F696D679F
:105980005F6465636F6465722E63000038B50D4611
:105990000446102128461AF029F9206800780128C9
:1059A00004D0022807D0042807D008E0208A2880E5
:1059B000608A688003E0E06800E00A206860206890
:1059C000426822B101B02946BDE83040104704A02A
:1059D00000900B4BBE220BA1022000F0DFFA38BD75
:1059E000696E6465765F726561645F636220697386
:1059F000206E6F74207265676973746572656400E8
:105A00009EC406084D6964646C655C4C56474C5CEA
:105A10004755495C6C76676C5C7372635C68616C5B
:105A20005C6C765F68616C5F696E6465762E63009E
:105A3000FEB5866A0446BEB9A08A218A0844A082BF
:105A4000E08A618A0844E08220460BF032FC0600BE
:105A500079D020460EF012FA00220921304615F0C6
:105A600089FC607880076ED4208A10B9608A00288B
:105A700069D00025ADF80450ADF8085094F83C000A
:105A800000F00F000328304616D01BF087FF0746B2
:105A900030461BF03DFE03460C200090B4F9121076
:105AA0003A4630460AF0F0FEADF8080030461BF0EA
:105AB00081FEC10712D017E01BF004FF07463046F5
:105AC0001BF0A0FE024603200090B4F910103B46E4
:105AD00030460AF0D9FEADF80400E7E7BDF904103E
