:020000040800F2
:1000000030C50120550200087D300008D9220008C3
:100010007F2F0008AD0E00089D4C00080000000076
:100020000000000000000000000000009D0100082A
:100030006D11000800000000F1010008193B0008E4
:100040006F0200086F0200086F0200086F020008CC
:100050006F0200086F0200086F0200086F020008BC
:100060006F0200086F0200086F0200086F020008AC
:100070006F0200086F0200086F0200086F0200089C
:100080006F0200086F0200086F0200086F0200088C
:100090006F0200086F0200086F0200086F0200087C
:1000A0006F0200086F0200086F0200086F0200086C
:1000B0006F0200086F0200086F0200086F0200085C
:1000C0006F0200086F0200086F0200086F0200084C
:1000D0006F0200086F0200086F0200086F0200083C
:1000E000711100086F0200086F0200086F0200081B
:1000F0006F0200086F0200086F0200086F0200081C
:100100006F0200086F0200086F0200086F0200080B
:100110006F0200086F0200086F0200086F020008FB
:100120006F0200086F0200086F0200086F020008EB
:100130006F0200086F0200086F0200086F020008DB
:100140006F0200086F0200086F0200086F020008CB
:100150006F0200086F0200086F0200086F020008BB
:100160006F0200086F0200086F0200086F020008AB
:100170006F0200086F0200086F0200086F0200089B
:100180006F0200086F020008DFF80CD000F058FC86
:10019000004800473588020830C501202A4B1968FD
:1001A0000868B0E8F04F80F30988BFF36F8F4FF015
:1001B000000080F3118870470000000006480068C6
:1001C000006880F3088862B661B6BFF34F8FBFF353
:1001D0006F8F00DF00BF00BF08ED00E0DFF80C000C
:1001E000016841F470010160704700BF88ED00E0D4
:1001F000EFF30980BFF36F8F134B1A681EF0100FD7
:1002000008BF20ED108A20E9F04F106008B44FF0CD
:10021000BF0080F31188BFF34F8FBFF36F8F2FF0B4
:1002200013F94FF0000080F3118808BC19680868C2
:10023000B0E8F04F1EF0100F08BFB0EC108A80F34A
:100240000988BFF36F8F70479C030020EFF3058090
:10025000704700000648804706480047FEE7FEE773
:10026000FEE7FEE7FEE7FEE7FEE7FEE7FEE7FEE766
:100270002D3B0008890100082DE9F05F05460020AC
:1002800092469B4688460646814640241BE0284607
:1002900041464746224600F044FA53465A46C01AA1
:1002A000914110D311461846224600F02BFA2D1A20
:1002B00067EB01084F4622460120002100F022FA98
:1002C00017EB00094E41201EA4F10104DFDC484673
:1002D00031462A464346BDE8F09F10B5431A934283
:1002E00009D28318881803E010F8011D03F8011DD6
:1002F000521EF9D210BD40EA01039B0703D009E06A
:1003000008C9121F08C0042AFAD203E011F8013B01
:1003100000F8013B521EF9D210BDD2B201E000F844
:10032000012B491EFBD270470022F6E710B5134699
:100330000A4604461946FFF7F0FF204610BD421C4E
:1003400010F8011B0029FBD1801A704710B500225C
:1003500000E0521C835C8C5CA34201D1002BF8D1DD
:10036000D8B2E1B2401A10BD034611F8012B00F8D3
:10037000012B002AF9D1184670470246C9B200E0A5
:10038000401C0378002BFBD102E003788B4203D0A2
:10039000401E9042F9D2002070472DE9FE4F804662
:1003A00081EA0300C00F0C46009021F0004123F0C9
:1003B0000045B8EB0200A94105D2404621469046CF
:1003C0001C460B46024623F00040104347D0270D41
:1003D000C7F30A00C3F30A510290401A0190402863
:1003E0006BDAC3F3130040F4801B0098924620B1EF
:1003F0000023D2EB030A63EB0B0B01985946C0F1C3
:100400004002504600F07EF906460D4650465946D9
:10041000019A00F096F910EB08006141002487EA88
:10042000115284EAE7731A4340D0009A62B3019AEA
:10043000012A4FEA075215DC001B61EB02014FF065
:10044000004202EA0752CDE90042001C41F580114A
:1004500032462B4600F0CDF903B0BDE8F08F4046A0
:100460002146F9E7001B61EB0201001C41F58013F6
:1004700000185B412018A2F5001747EB030140EA82
:10048000D570B6196D4111E06D084FEA360645EAA0
:10049000C0754FEA0752001B61EB0201001C41F5D9
:1004A000801149084FEA30000019514132462B466D
:1004B00003B0BDE8F04F00F08DB900980122400074
:1004C0000023D0EB020263EBE073009821464FEA71
:1004D000E074B8EB000061EB0401E9E783F000434E
:1004E0005BE781F0004158E72DE9FE4F81EA030404
:1004F00004F0004421F0004100944FF0000B23F081
:10050000004350EA01045ED052EA03045BD0C3F317
:100510000A54C1F30A552C44A4F2F3340194A0FB0D
:100520000254C1F3130141F48011C3F3130343F4E4
:10053000801301FB024400FB034E840A970A44EA3D
:10054000815447EA8357A4FB076802958D0A05FB8F
:1005500007854FEA932C04FB0C542705029D4FEAB4
:10056000065847EA1637B5EB08056EEB070C870E01
:10057000920E47EA811742EA8312A7FB0201B6EB0B
:100580000B0164EB00042B0D43EA0C335E1844EBC3
:100590001C50DA465146E7FB0201C5F313044FEA4B
:1005A0000B3343EA14534FEA0432019C43EA060337
:1005B000A4F10C040294009CCDE900B400F019F9F8
:1005C00003B0BDE8F08F00200146F9E70EB540F218
:1005D000334102910021CDE900110A460B4600F09B
:1005E00008F903B000BDC1F30A5210B5C1F31301FD
:1005F00040F2FF3341F480119A4201DA002010BD2D
:1006000040F233439A42A2F2334203DC524200F0FA
:1006100088F810BD904010BD00F0004230F000405E
:100620000AD0C10D01F56071C0F3160042EA015114
:10063000C208400711437047002001467047000080
:1006400030B5041E71F1000404DB4FF00044404259
:1006500064EB0101141E73F1000405DB1C464FF02E
:100660000043524263EB04038B4208BF824230BD19
:1006700030B5041E71F1000404DB4FF00044404229
:1006800064EB0101141E73F1000405DB1C464FF0FE
:100690000043524263EB0403994208BF904230BDCD
:1006A00001F0004330B421F0004150EA010206D0CD
:1006B0000A0DA2F56072C1F31301002A02DC30BCFE
:1006C00000207047440F44EAC104C100E01830BC68
:1006D00000EBC25000F047B830B50B460146002091
:1006E0002022012409E021FA02F59D4205D303FAF4
:1006F00002F5491B04FA02F52844151EA2F1010275
:10070000F1DC30BD202A04DB203A00FA02F100209F
:1007100070479140C2F1200320FA03F3194390403F
:100720007047202A04DB203A21FA02F000217047AA
:1007300021FA02F3D040C2F1200291400843194649
:100740007047202A06DBCB17203A41FA02F043EA31
:10075000E07306E041FA02F3D040C2F1200291407A
:100760000843194670470029A8BF7047401C49003C
:1007700008BF20F00100704710B4B0FA80FC00FA06
:100780000CF050EA010404BF10BC704749B1CCF131
:10079000200421FA04F411FA0CF118BF01212143BD
:1007A0000843A3EB0C01CB1D4FEA00614FEA102078
:1007B00042BF002010BC704700EBC350104400291A
:1007C000A4BF10BC7047401C490008BF20F00100C6
:1007D00010BC704710B5141E73F1000408DA401CF9
:1007E00041F1000192185B411A4301D120F0010050
:1007F00010BD2DE9F04D92469B4611B1B1FA81F240
:1008000002E0B0FA80F220329046FFF77BFF044608
:100810000F4640EA0A0041EA0B0153465A46084394
:1008200013D0114653EA010019D0C8F140025046D6
:10083000FFF777FF05460E46504659464246FFF7FA
:1008400061FF084305D0012004E020463946BDE899
:10085000F08D0020054346EAE0762C4337430A98A2
:100860006305E40AA0EB08000022FD0A44EA4754AD
:100870000A3002D500200146E9E701051019694157
:10088000DDE9084500196941BDE8F04DA2E72DE911
:10089000F04D81EA030404F0004B21F000451446BA
:1008A0004FF0000A23F0004150EA050220D054EA3C
:1008B00001021DD0C5F30A570246C5F31303C1F365
:1008C0001300C1F30A5640F4801543F48013A7EBDC
:1008D0000608101BD64608F2FD3873EB050002D35C
:1008E00008F1010801E092185B41B8F1000F03DA4A
:1008F00000200146BDE8F08D00204FF4801106462F
:1009000084460EE0171B73EB050705D3121B63EB40
:10091000050306434CEA010C49084FEA30009218DF
:100920005B4150EA0107EDD152EA030012D082EA9E
:10093000040083EA0501084305D0101BAB4106D231
:100940000122002306E000224FF0004302E06FF096
:10095000010253101AEB06004CEB085110EB0A0091
:1009600041EB0B01BDE8F04DFFF734BF2DE9F04D31
:1009700000231A461B1A8A4103DB00200146BDE80A
:10098000F08DC1F30A52C1F3130141F480154FF009
:10099000000BD10702D100186D41521E00270446FA
:1009A00040F2FF11384601EB620A3E46804602469D
:1009B00000204FF48011FFF7B4FEC2197141BB183B
:1009C00046EB0100B4EB030C75EB000C04D3E41A06
:1009D00065EB000517460E46241908F101006D412C
:1009E00080463428E3DDF91946EB0600091BA841CF
:1009F00003D24FF0FF32134601E0002213461BEBF7
:100A0000070046EB0A51BDE8F04DFFF7E3BEC1F326
:100A10000A52C1F3130140F2FF3341F480119A42AC
:100A200002DA00200146704740F233439A42A2F2B4
:100A3000334202DC5242FFF774BEFFF763BE000090
:100A4000064C074D06E0E06840F0010394E807001B
:100A500098471034AC42F6D3FFF79AFBE0E1060862
:100A600000E2060870B58C1810F8015B15F007035A
:100A700001D110F8013B2A1106D110F8012B03E037
:100A800010F8016B01F8016B5B1EF9D12B0705D43F
:100A90000023521E0DD401F8013BFAE710F8013B88
:100AA000CB1A921C03E013F8015B01F8015B521EA4
:100AB000F9D5A142D8D3002070BD000038B5094C4B
:100AC000607800280DD108A000900D4B40220DA1A8
:100AD000042005F041FD01206070BDE8384000F0C1
:100AE000ADB938BD18000020456E746572696E6737
:100AF00020736C656570206D6F64652E2E2E00006E
:100B00006BFE02084170706C69636174696F6E5CA2
:100B10004170705F4175746F536C6565705C4150D6
:100B2000505F4175746F536C6565702E63000000F3
:100B30000148406870470000180000201CB52EF0E6
:100B4000D1FF0849124B16224860002048700870F7
:100B50003C2105A0CDE900010EA1042005F0FCFC1C
:100B60001CBD0000180000204150505F4175746F9B
:100B7000536C65657020696E697469616C697A652A
:100B8000642C2074696D656F75743D256473000075
:100B900040FE02084170706C69636174696F6E5C3D
:100BA0004170705F4175746F536C6565705C415046
:100BB000505F4175746F536C6565702E6300000063
:100BC0000148007870470000180000200148407874
:100BD000704700001800002010B52EF083FF054973
:100BE00048604878002803D0BDE8104000F048B8BD
:100BF00010BD0000180000207CB50B4D04002C70C7
:100C000001D00AA000E00BA00DA1CDE90010104B0F
:100C1000262210A1042005F09FFC002C02D02EF00B
:100C200061FF68607CBD000018000020456E6162B5
:100C30006C65640044697361626C65640000000067
:100C40004175746F20536C6565702025730000003A
:100C500053FE02084170706C69636174696F6E5C69
:100C60004170705F4175746F536C6565705C415085
:100C7000505F4175746F536C6565702E63000000A2
:100C800038B50A4C607800280ED009A000900C4BB3
:100C90004B220CA1042005F05FFC0020607000F0E6
:100CA000D7F82EF01FFF606038BD0000180000204C
:100CB00057616B696E672075702E2E2E0000000044
:100CC00084FE02084170706C69636174696F6E5CC8
:100CD0004170705F4175746F536C6565705C415015
:100CE000505F4175746F536C6565702E6300000032
:100CF0001CB500F071FF01F08DFCFFF71FFF00F045
:100D00003BF803F0CCFF07490120CDE900010202C6
:100D1000002305A107482EF07DFEBDE81C402EF003
:100D200063BB00000400002073746172745F74611F
:100D3000736B0000FDC0020808B54FF47A742EF002
:100D4000D1FE4EF660250090214668462EF090FEBA
:100D5000FFF736FF0028F7D0FFF738FF0028F3D160
:100D60002EF0C0FE0646FFF7E3FE301AA842EBD392
:100D7000FFF7A4FEE8E7000070B58AB00121022069
:100D800002F06AFC0121022002F072FC02208DF8C0
:100D9000240000248DF82540254E01258DF826409D
:100DA00008958DF8274008A9304600F05BFC022228
:100DB0000021304600F0A7FC05A802F08DFF40F6A8
:100DC0001F501C4EADF814400690ADF8164005A912
:100DD000304602F043FF684602F036FF6020ADF86F
:100DE00000004FF452600290ADF80250ADF80C4094
:100DF0006946304602F0E4FE00220121304602F04E
:100E0000D7FE00220821304602F0D2FE08213046EB
:100E100002F014FF0121304602F0B6FE01213046F7
:100E200002F0BCFE0449642008700AB070BD0000E6
:100E30000004024000040040C400002002490020D9
:100E400008600249087070473C040040C40000205C
:100E50000248007800B9642000F002B8C400002005
:100E6000642801D9642003E0411E042900D2052032
:100E700003490870034900EB001040000860704708
:100E8000C40000203C04004008B5074D4FF0FF347B
:100E90002246694628682EF0A9FC0128F8D19DF861
:100EA0000000FFF7DDFFF3E700000020FEE7000091
:100EB0002DE9F0410D4D0024C5F8AC42022005F5A6
:100EC0002B7509F0CBF90A4F0126C7F88062022082
:100ED00007F5207709F0C2F93C60022009F0BEF95D
:100EE0002E60BDE8F041022009F0B8B9008042420E
:100EF000008040421CB50121222002F0ADFB0124FC
:100F00008DF804408DF8064000948DF8074069463E
:100F1000054800F0A7FBE00200908DF80440694608
:100F2000024800F09FFB1CBD000402400014024078
:100F300070B50B480125C0F8AC52022009F08EF9BB
:100F4000084CC4F88052022004F5207409F086F998
:100F500000202060BDE87040022009F07FB9000049
:100F600000804242008040422DE9F0470024DFF833
:100F70004C80134E824625460127A1466006040E8A
:100F8000C6F88072022009F069F9D8F82C0208B17D
:100F9000641CE4B2C6F88092022009F05FF96D1C6F
:100FA000EDB2082DEAD3BAF1000F04D0FFF780FFAD
:100FB0002046BDE8F087FFF7BBFFF9E7008042421B
:100FC000008040422DE9F04700240E4F0E4E0546AA
:100FD000A1464FF00108E809C7F8AC02022009F069
:100FE0003DF9C6F88082022009F038F9C6F88092EF
:100FF0006806641C050EE4B2082CECD3C7F8AC827A
:10100000BDE8F087008042420080404270B50C4C41
:101010000120C4F8AC020B4DC5F88002022004F593
:101020002B7405F5207509F019F9002626600220B9
:1010300009F014F92E60BDE87040022009F00EB9E5
:10104000008042420080404270B50B4C0020C4F842
:10105000AC02022004F52B7409F000F907480125C1
:10106000C0F88052022009F0F9F82560BDE8704010
:10107000022009F0F3B800000080424200804042A4
:101080002DE9F0410024124E01272546C6F8AC7226
:10109000022009F0E3F838460E4FC7F8800207E057
:1010A000641CE4B2FA2C03D9FFF7CEFF012506E059
:1010B000022009F0D3F8D6F82C020028F0D1002045
:1010C000C7F88002022009F0C9F82846BDE8F0817F
:1010D000008042420080404210B54FF4E1310120CF
:1010E0002DF08EFD5C2118A0FFF747F928B15C2197
:1010F00015A0FFF742F9401C00E013A02F21FFF7D5
:101100003CF900284FF05C010FA00BD0FFF735F938
:1011100028B15C210CA0FFF730F9401C00E00AA0C8
:101120002F2104E0FFF729F928B15C2106A0FFF781
:1011300024F9401C00E004A00146BDE8104006224E
:10114000094803F03DBE0000436F6D6D6F6E5C4358
:101150006F6D5F44656275675C436F6D5F44656288
:1011600075672E630000000088D7060870470000EE
:1011700038B54FF48044204600F020F8002812D003
:10118000002000900848694680682EF0FBFA00981D
:1011900030B10649A0030860BFF34F8FBFF36F8FD4
:1011A000204600F005F838BDC800002004ED00E03E
:1011B0000149086070470000143C0140034A0146A1
:1011C000002012680A4200D001207047143C014000
:1011D00030B51A498379026853B30B6893430B60A7
:1011E0000A1D13680468A343136002790A44136854
:1011F000046823431360114A083213680468A34348
:101200001360131D1C680568AC431C604479102CE6
:1012100005D021440A68006802430A6030BD1168A5
:10122000046821431160196800680143196030BDEA
:101230000079084401689143016030BD003C0140E1
:101240002DE9FF410121062002F006FA00248DF865
:101250000C408DF80E4003208DF80D00022601256C
:1012600002968DF80F5002A9394800F0FBF9680387
:1012700002908DF80C5002A9364800F0F3F9FFF700
:1012800039FE354FC7F8B442142007F52D7708F022
:10129000DFFF3D60322008F0DBFF8DF800400122C7
:1012A0006946002000F0BAF901226946A42000F046
:1012B000B5F916208DF8000001226946802000F063
:1012C000ADF90C208DF8000001226946882000F05D
:1012D000A5F902226946A12000F04EF89DF8000011
:1012E000302803D19DF8010003282BD00422694641
:1012F00048F2401000F0B4FA8DF80440694617A097
:1013000003F05EFD1848009948F24005C0F802104D
:101310008DF8006001226946284600F0AFFB0122EB
:101320006946E81D00F09CFA0A2008F091FF8DF84C
:10133000004001226946284600F0A0FB04B00020CE
:10134000BDE8F08143F2030108A003F039FDF5E7A1
:101350000004024000080240000041424354502073
:1013600049443A25730D0A00E00000204354502000
:1013700049443A25780D0A002DE9F04115460E46FC
:101380000446FFF743FE7020FFF71CFEFFF778FED0
:10139000E0B2FFF717FEFFF773FEFFF737FE71208D
:1013A000FFF710FEFFF76CFE00246F1E09E0BC4241
:1013B00001D0012000E00020FFF7D6FD3055641C6D
:1013C000E4B2AC42F3D3BDE8F041FFF73DBE00000C
:1013D0002DE9F14783B000268B4D8DF804604FF066
:1013E0000A096878894C401CC0B2B0FBF9F209FBCD
:1013F00012013746687009B10A2871D2824884A167
:10140000801CFEF7A3FF4FF0010203A910B30220D6
:10141000FFF7B2FF9DF80C00010761D0297800F0BA
:101420000F028A425CD8FF209040C04394F820808D
:1014300040F0C00084F8200004EB4100A289428102
:10144000E18A8182042008F003FF8DF80460DFF850
:10145000C4A185E048F24E18404600F001FA9DF81C
:101460000C000106D6D5297800F00F008842D1D8AB
:101470008DF80460012201A9404600F0FFFAC9E797
:1014800094F8201001228240114264D05E4860A18D
:10149000801CFEF75BFF20B35F489DF80410042218
:1014A00030F811006946FFF767FF94F830009DF8A7
:1014B0000010C0079DF8010001F00F0100EB0121B1
:1014C00038D09DF8040004EB4000C1829DF8022052
:1014D0009DF8031002F00F0201EB022181813AE036
:1014E00059E04D489DF804100A30042230F81100EC
:1014F000694600F0B5F994F830009DF80110C00776
:101500009DF8000000EB01219DF8040004EB400071
:1015100005D081819DF802109DF8032018E0C1825A
:101520009DF802109DF8032001EB0222BAF800108A
:10153000891AD3E7BAF80000411A9DF8040004EBB9
:10154000400081819DF802209DF8031002F00F02F7
:1015500001EB0221C1829DF80400401C8DF80400BB
:101560009DF80400297888428AD3A189BAF800201E
:101570000127914204D8E18ABAF80200814209D9D0
:101580009DF80C0000F00F00012812D9E089A0811D
:10159000208BE0826E701C481DA1801CFEF7D6FED9
:1015A00001009DF80C104FF6FF700FD0C90625D032
:1015B0001BE0287804EB40004189A181808AE08209
:1015C00080208DF80C0084F82080E4E701F08F0182
:1015D000802913D009E000BF21F0800003E0A08142
:1015E000E08201F0E00084F820006878F02801D95A
:1015F00085F8019004B03846BDE8F08794F82010D3
:101600000A06ECD5E8E70000E0000020F00000202A
:1016100039313100EC0300202A1A03082DE9F0418A
:1016200016460F4604460025FFF7F0FC7020FFF732
:10163000C9FCFFF725FDE0B2FFF7C4FCFFF720FD72
:10164000002408E0385DFFF7BDFCFFF719FD050039
:1016500003D1641CE4B2B442F4D3FFF7F5FC28468E
:10166000BDE8F081F0B50023012403270D6804FADA
:1016700003F21540954242D1D0F800C05E0007FA4F
:1016800006F52CEA050CC0F800C091F804C0D0F8AB
:1016900000E00CFA06FC4CEA0E0CC0F800C091F811
:1016A00004C0BCF1010F02D0BCF1020F1FD1D0F871
:1016B00008C02CEA050CC0F808C091F805C0D0F8A5
:1016C00008E00CFA06FC4CEA0E0CC0F808C0D0F892
:1016D00004C02CEA020CC0F804C0426891F806C0AD
:1016E0000CFA03FC1FFA8CFC42EA0C024260C2684E
:1016F000AA43C260CA79C568B2402A43C2605B1C73
:10170000102BB3D3F0BD4B07DB0E9A40C90810B5C0
:1017100000EB8100016A0F249C40A1430162016A31
:101720001143016210BD0246002012690A4200D036
:1017300001207047090481617047816170470AB1D7
:10174000816170470904FBE72DE9FF410121062073
:1017500001F082FF00248DF804408DF8064003203C
:101760008DF80500DFF8C4800226012500968DF86B
:10177000075069464046FFF775FF680300908DF8F3
:10178000045069462A48FFF76DFFFFF7B3FB294F66
:10179000C7F8B4420A2007F52D7708F059FD3D60DF
:1017A0000A2008F055FD8DF8045000968DF807408A
:1017B00069464046FFF756FF642008F049FD0422C1
:1017C00002A948F2401000F04BF88DF80C4002A935
:1017D00019A003F0F5FA1BA102A8FEF7B7FD08BB9C
:1017E00048F240058DF80860012202A9284600F061
:1017F00045F9012202A9E81D00F032F89DF8081011
:10180000602905D211A003F0DBFA012000F00EF9E7
:101810000A2008F01DFD8DF80840012202A9284683
:1018200000F02CF904B00020BDE8F0810004024073
:1018300000080240000041424354502049443A25E8
:10184000730D0A00393134370000000044656661C9
:10185000756C74205665723A25640D0A000000000C
:101860002DE9F04115460E460446FFF7CFFB282030
:10187000FFF7A8FBFFF704FC200AFFF7A3FBFFF725
:10188000FFFBE0B2FFF79EFBFFF7FAFBFFF7BEFBA3
:101890002920FFF797FBFFF7F3FB00246F1E09E0F9
:1018A000BC4201D0012000E00020FFF75DFB305575
:1018B000641CE4B2AC42F3D3BDE8F041FFF7C4BB13
:1018C0002DE9F147554E00244FF00A0A307885B0D3
:1018D000401CC0B2B0FBFAF20AFB1201504DA04608
:1018E000307009B10A286ED248F24E19012205A9BA
:1018F0004846FFF7B5FF00278DF8007001226946C2
:10190000484600F0BBF89DF8140001075BD000F0DA
:101910000F01062957D2FF2088408DF80000C043F0
:1019200095F8209040F0C00085F82000A889A88292
:10193000E88AE8834FF0010895F8201008FA04F0CF
:10194000014225D03748042201A930F81400FFF7DE
:1019500087FF95F830009DF80510C0079DF804003A
:1019600000EB012105EB44000AD0C1829DF806106E
:101970009DF8072001EB0221C1F54871818107E044
:1019800081819DF806109DF8072001EB0221C1829C
:10199000641CE4B2052CCFD32349AA894FF0010877
:1019A0000B8828469A4203D8C28A49888A4209D9B4
:1019B0009DF8141001F00F0101290BD9C189818113
:1019C000018BE98237709DF8140000F08F008028A9
:1019D0000AD01AE0818A8181C18BC18280218DF871
:1019E000141085F82090EEE795F82000010603D545
:1019F00020F0800085F820004FF6FF7025F80C0FCE
:101A00006881287D00F0E00028753078F02801D941
:101A100086F800A006B04046BDE8F087E700002049
:101A2000F0000020F61A0308EC03002008B500219E
:101A30008DF800108DF801000F4800BF435C9DF841
:101A40000020491C1A44C9B28DF80020B829F5D3EA
:101A5000D0B2C043401C8DF80000B822064948F2BD
:101A6000470000F00BF80222694648F2FF0000F040
:101A700005F8002008BD00003E1A03082DE9F041DA
:101A800016460F4604460025FFF7C0FA2820FFF748
:101A900099FAFFF7F5FA200AFFF794FAFFF7F0FA40
:101AA000E0B2FFF78FFAFFF7EBFA002408E0385DA9
:101AB000FFF788FAFFF7E4FA050003D1641CE4B2EB
:101AC000B442F4D3FFF7C0FA2846BDE8F081000025
:101AD00038B51CA00090254B292225A1042004F034
:101AE0003BFD2E4C206808B11FF0F4FB00201FF0D6
:101AF000E5FBF0224FF4A071206022F01FFD284882
:101B000015F05FFE01460022206822F029FE002227
:101B10001146206822F0A5FE102120681FF03CFB32
:101B200020682AF0F9FB206806F094FB206812F088
:101B300075FB1CA000900D4B3A220DA1042004F06F
:101B40000BFD38BD4372656174696E672041626F39
:101B50007574506167652028333230783234302014
:101B60006C616E647363617065290000A6FF0208F2
:101B70004170706C69636174696F6E5C4170705F15
:101B80004755495C4755495F41626F75745C4755DD
:101B9000495F61626F75742E63000000340000209D
:101BA0002E1A1A0041626F75745061676520637266
:101BB0006561746564207375636365737366756CC2
:101BC0006C79000003484068002801D128F06EBA03
:101BD000704700007400002038B516F02BFC04009C
:101BE00033D0052023F002F80546002022F0FEFF46
:101BF00019490091014601232A46204625F0A2FEFC
:101C00000146204616F0A0FD14A000901A4B492270
:101C10001AA1042004F0A0FC00F08AF9FFF758FF95
:101C200000F0FAF900F002FAFFF7CCFF00F008FA32
:101C30001C48006816F060FD1BA000900E4B54225B
:101C40000EA1042004F088FC38BD23A03C220090A3
:101C5000094B0AA10320F5E7188E0308496E697441
:101C600069616C697A696E672047554920706167C0
:101C700065732E2E2E000000E6FE02084170706C87
:101C800069636174696F6E5C4170705F4755495C50
:101C90004755495F6D61696E5C4755495F6D616984
:101CA0006E2E63002000002047554920696E69743C
:101CB00069616C697A6564207375636365737366C3
:101CC000756C6C792C20486F6D6550616765206C70
:101CD0006F616465640000004E6F20646973706C0E
:101CE00061792072656769737465726564206265E5
:101CF000666F7265204755495F496E69742100001F
:101D000038B509A000900D4B3F220DA1042004F02E
:101D100023FC164C206808B9FFF7DAFE2068BDE8FE
:101D2000384016F0E9BC00004C6F6164696E6720B2
:101D300041626F757450616765000000BAFF020868
:101D40004170706C69636174696F6E5C4170705F43
:101D50004755495C4755495F41626F75745C47550B
:101D6000495F61626F75742E6300000034000020CB
:101D700010B5074C606808B9FFF724FF00202070F9
:101D800060702DF06DF86068BDE8104016F0B4BCCE
:101D90007400002008B507A000900B4BF1220BA1A6
:101DA000042004F0D9FB13480068BDE8084016F091
:101DB000A3BC00004C6F6164696E6720486F6D655D
:101DC000506167650000000064FF02084170706C9C
:101DD00069636174696F6E5C4170705F4755495CFF
:101DE0004755495F6D61696E5C4755495F6D616933
:101DF0006E2E63002000002038B509A000900D4B26
:101E000021220DA1042004F0A7FB164C206808B97C
:101E100000F002F92068BDE8384016F06DBC000003
:101E20004C6F6164696E6720506F776572506167AF
:101E300065000000FEFF02084170706C6963617408
:101E4000696F6E5C4170705F4755495C4755495FEB
:101E5000506F7765725C4755495F506F7765722E9A
:101E6000630000004400002010B5054C606808B90C
:101E700000F0DCF86068BDE8104016F03DBC0000E2
:101E80005400002038B50F4C606808B900F0D8F84D
:101E900007F060FBA07038B90BA00090144B3B22F8
:101EA00014A1042004F058FB002020709FED1F0AAD
:101EB00084ED090A2DF046F86068BDE8384016F058
:101EC0001BBC0000940000205761726E696E673A77
:101ED000204D4C5839303631342073656E736F7233
:101EE000206E6F74206465746563746564210000FE
:101EF000F50003084170706C69636174696F6E5C12
:101F00004170705F4755495C4755495F54656D7036
:101F1000657261747572655C4755495F54656D7093
:101F2000657261747572652E630000000000000028
:101F300038B51AA00090234B592223A1042004F0A5
:101F40000BFB00201FF0BAF9294CF0224FF4A071CE
:101F5000206022F0F3FA274815F022FC0146002207
:101F6000206822F0FDFB00221146206822F062FC6E
:101F7000102120681FF010F920682AF027F9206846
:101F800026F06EFF206812F045F81BA000900D4B64
:101F900065220DA1042004F0DFFA38BD43726561AB
:101FA00074696E6720486F6D6550616765202833DE
:101FB000323078323430206C616E647363617065E6
:101FC00029000000EFFE02084170706C69636174C3
:101FD000696F6E5C4170705F4755495C4755495F5A
:101FE0006D61696E5C4755495F6D61696E2E630076
:101FF000200000202E1A1A00486F6D655061676539
:1020000020637265617465642073756363657373BF
:1020100066756C6C7900000003480068002801D1E7
:1020200027F03ABB70470000440000200348406896
:10203000002801D127F0D6BC7047000054000020D2
:1020400038B50B4C6068002811D1E07858B901F020
:102050007BFB0120E07007A000900F4B2C220FA10A
:10206000042004F079FABDE8384028F0CDB938BD35
:1020700094000020534D4275732F4D4C5839303623
:10208000313420686172647761726520696E6974A9
:1020900069616C697A656400DB0003084170706CEB
:1020A00069636174696F6E5C4170705F4755495C2C
:1020B0004755495F54656D70657261747572655CF2
:1020C0004755495F54656D70657261747572652E10
:1020D0006300000008B506A000900A4B2C220AA15C
:1020E000042004F039FABDE80840FFF753BE0000B1
:1020F000556E6C6F6164696E6720506F77657250C2
:1021000061676500110003084170706C6963617458
:10211000696F6E5C4170705F4755495C4755495F18
:10212000506F7765725C4755495F506F7765722EC7
:102130006300000008B52DF0D5FC009025F05AFD95
:1021400000F058F902F0A6FC052168462DF090FC3D
:10215000F4E70000F8B526A000902E4B67222EA1D0
:10216000042004F0F9F9314C2078002501260128DB
:102170000BD02078022820D02DA00090254B802263
:1021800025A1042004F0E8F9F8BD607850B133A02F
:102190000090204B6F2220A1042004F0DDF900F014
:1021A000E5F816E034A000901A4B6B221AA1042027
:1021B00004F0D2F900F092F817E0607858B136A038
:1021C0000090144B7A2214A1042004F0C5F902F007
:1021D00017FC6570F8BD38A000900E4B76220EA15A
:1021E000042004F0B9F902F091FB6670F8BD00001C
:1021F0004B4559332070726573736564202D2054EC
:102200006F67676C65206D6561737572656D656E6E
:1022100074000000380203084861726477617265D7
:102220005C4B45595C4B65792E630000C80000206B
:102230004B4559332069676E6F726564202D206E9F
:102240006F206D6561737572656D656E7420706168
:1022500067652061637469766500000053746F7070
:102260002048656172742052617465206D656173E8
:102270007572656D656E7400537461727420486583
:102280006172742052617465206D65617375726549
:102290006D656E740000000053746F702054656D9E
:1022A0007065726174757265206D656173757265B4
:1022B0006D656E7400000000537461727420546583
:1022C0006D7065726174757265206D65617375728C
:1022D000656D656E74000000FEE7000038B50C4CBB
:1022E0002078012812D0012020702DF0FBFBE06146
:1022F0000020A07007A000900E4B3B220EA10420EE
:1023000004F02AF9BDE838402CF0AABD38BD000021
:102310007400002048656172742052617465206DFC
:102320006561737572656D656E7420737461727426
:1023300065640000870003084170706C6963617414
:10234000696F6E5C4170705F4755495C4755495FE6
:102350004865617274526174655C4755495F4865B0
:10236000617274526174652E630000000A4808B5FA
:10237000017801290ED100210170417007A0009061
:102380000E4B46220EA1042004F0E6F8BDE80840FA
:102390002CF066BD08BD0000740000204865617225
:1023A000742052617465206D6561737572656D6529
:1023B0006E742073746F707065640000A20003086F
:1023C0004170706C69636174696F6E5C4170705FBD
:1023D0004755495C4755495F48656172745261745D
:1023E000655C4755495F4865617274526174652E3A
:1023F000630000001CB5174C2078012829D12DF06E
:1024000071FBE169401A41F28831884211D2A0780B
:102410000A21401CC0B2B0FBF1F2A07001FB120017
:10242000002816D129F0D4FD6070BDE81C402CF0C6
:1024300017BD0220207029F0CBFD6070617806A0E6
:10244000CDE900010D4B62220DA1042004F084F8B7
:10245000EBE71CBD74000020486561727420526176
:102460007465206D6561737572656D656E74206449
:102470006F6E653A2025642042504D00BC00030871
:102480004170706C69636174696F6E5C4170705FFC
:102490004755495C4755495F48656172745261749C
:1024A000655C4755495F4865617274526174652E79
:1024B0006300000008B52FA00090344BBC2234A16B
:1024C000042004F049F8314F4FF00008523F354DD9
:1024D00000F0EEFFE878002848D1002607EBC600A0
:1024E000044600F0C3F800283CD01E202CF0F8FE73
:1024F000204600F0BBF818B934E00A202CF0F0FEBA
:10250000204600F0B3F80028F7D1A079012804D0C4
:10251000022812D0032822D11FE023A01B4B0090D9
:102520003A3B59222BA1042004F016F80120287010
:1025300085F80180FFF71CFC11E02BA0134B0090E5
:102540002E3B602223A1042004F006F8022028700C
:1025500085F80180FFF796FC01E0FFF7FBFD6420A2
:102560002CF0BEFE761CF6B2032EB7D314202CF04E
:10257000B7FEADE74B6579206465746563742074BC
:1025800061736B2073746172746564005A0203088E
:1025900048617264776172655C4B45595C4B657943
:1025A0002E630000C80000204B4559312070726531
:1025B00073736564202D204E6176696761746520B0
:1025C000746F204865617274205261746520706177
:1025D0006765000048617264776172655C4B4559BC
:1025E0005C4B65792E6300004B4559322070726553
:1025F00073736564202D204E617669676174652070
:10260000746F2054656D70657261747572652070A9
:10261000616765001CB50322002101202DF044F8FC
:102620000F49886001210D2001F016F8012188036F
:1026300001F02AF800208DF8040001208DF8070031
:1026400002208DF805008003009069460548FFF7D9
:1026500009F8C020009069460348FFF703F81CBD45
:10266000C8000020000002400008024010B50446E7
:1026700081880068FFF757F8E179884201D101208D
:1026800010BD002010BD000002480021C170817003
:1026900070470000C800002003480021017041700D
:1026A000C170817070470000C800002002490870A6
:1026B0000020487070470000C800002070B5064632
:1026C000094800240188458820464D43214600F0F2
:1026D000C1FA00F045FC03E0304600F00DFC641C3C
:1026E000AC42F9D370BD0000EC0300202DE9F047A7
:1026F0008246A2EB0A00401C884686B2A3EB080083
:10270000401C87B20024DDF8209015E008EB04009F
:1027100081B2504600F09EFA00F022FC002507E04E
:1027200004FB065139F8110000F0E6FB6D1CADB258
:10273000B542F5D3641CA4B2BC42E7D3BDE8F08730
:10274000292000F0A5BB00002DE9F041F0212C2349
:102750002A252E4C4FF4A0722B2630B1012804D02C
:10276000022815D0032813D022E00027A77121806A
:102770006280238165810028A6814FF0360003D056
:1027800000F086FBC82011E000F082FB08200DE07D
:102790000127A77122806180238165810228A6819B
:1027A0004FF036002ED000F073FB682000F03CFBA9
:1027B000608900F06DFB002000F036FB002000F087
:1027C00033FB2088401EC0F30F2000F02DFB207843
:1027D000401EC0B200F028FBA08900F059FB002089
:1027E00000F022FB002000F01FFB6088401EC0F3B9
:1027F0000F2000F019FBA078BDE8F041401EC0B2E8
:1028000000F012BB00F044FBA820CFE7EC0300204F
:102810002DE9FE4F161ACDE900104FF000085D1AA1
:1028200047464FF0FF30002E02DD4FF0010102E07D
:1028300003D14FF000018B4602E08346C6F100064B
:10284000002D02DD4FF0010002E003D14FF0000047
:10285000824602E08246C5F10005AE4201DD344603
:1028600000E02C46601C4FF00009029018E0009830
:1028700081B2019880B200F019F8B0442F44A0450D
:1028800004DD0198A8EB040858440190A74203DD39
:1028900000983F1B5044009009F101001FFA80F995
:1028A00002998945E3DDBDE8FE8F000010B500F018
:1028B000D1F900F055FB03488088BDE8104000F0D6
:1028C0001BBB0000D80000202DE9FC5F80460025DE
:1028D000144603200F46A0EB440649E0381B81B2A2
:1028E00008EB050A01901FFA8AF0FFF7DFFF781B5B
:1028F00081B208EB040900901FFA89F0FFF7D6FFB8
:1029000007EB050B1FFA8BF11FFA89F0FFF7CEFFDB
:1029100007EB04091FFA89F11FFA8AF0FFF7C6FFD7
:10292000A8EB050A1FFA89F11FFA8AF0FFF7BEFF2C
:10293000A8EB04091FFA8BF11FFA89F0FFF7B6FF25
:10294000019881B21FFA8AF0FFF7B0FF009881B2B8
:102950001FFA89F0FFF7AAFF6D1C002E03DA06EBC1
:102960008506B61D04E0281B06EB8006641E0A36A9
:10297000A542B3DDBDE8FC9F10B5144600F06AF92E
:10298000034821460089BDE8104000F0EFBA00007E
:10299000EC0300202DE9FC410121072000F05CFE42
:1029A00001258DF804500024F0208DF80640DFF852
:1029B000888200908DF8074002268DF805606946F0
:1029C0004046FEF74FFEF0214046FEF7B6FE1020CF
:1029D0009A4F009069463846FEF744FE102138466B
:1029E000FEF7ABFE202000908DF804408DF80750D4
:1029F00069463846FEF736FE8DF804508DF80640DD
:102A00008DF807408E4C00958DF80560694620468C
:102A1000FEF728FE01212046FEF78FFE40214046AA
:102A2000FEF78BFE012007F013FC40214046FEF725
:102A300081FE0A2007F00CFC40214046FEF77DFE97
:102A4000782007F005FCCF2000F022FA002000F0EB
:102A5000EBF9C12000F0E8F9302000F0E5F9ED20B5
:102A600000F016FA642000F0DFF9032000F0DCF932
:102A7000122000F0D9F9812000F0D6F9E82000F00A
:102A800007FA852000F0D0F9012000F0CDF97A2076
:102A900000F0CAF9CB2000F0FBF9392000F0C4F9AE
:102AA0002C2000F0C1F9002000F0BEF9342000F025
:102AB000BBF9022000F0B8F9F72000F0E9F9202076
:102AC00000F0B2F9EA2000F0E3F9002000F0ACF9E0
:102AD000002000F0A9F9C02000F0DAF9212000F070
:102AE000A3F9C12000F0D4F9112000F09DF9C52010
:102AF00000F0CEF9312000F097F93C2000F094F975
:102B0000C72000F0C5F99F2000F08EF9362000F0B4
:102B1000BFF9082000F088F93A2000F0B9F95520F3
:102B200000F082F9B12000F0B3F9002000F07CF948
:102B30001B2000F079F9B62000F0AAF90A2000F075
:102B400073F9A22000F070F9F22000F0A1F9002042
:102B500000F06AF9262000F09BF9012000F064F9EA
:102B6000E02000F095F90F2000F05EF9202000F041
:102B70005BF91D2000F058F90B2000F055F91020EA
:102B800000F052F90A2000F04FF9492000F04CF90A
:102B9000A92000F049F93B2000F046F90A2000F096
:102BA00043F9152000F040F9062000F03DF90C2013
:102BB00000F03AF9062000F037F9002000F034F96F
:102BC000E12000F065F9002000F02EF91F2000F050
:102BD0002BF9222000F028F9042000F025F90F201D
:102BE00000F022F9052000F01FF9362000F01CF952
:102BF000462000F019F9462000F016F9052000F0F3
:102C000013F90B2000F010F9092000F00DF9332022
:102C100000F00AF9392000F007F90F2000F004F95C
:102C2000112000F035F9782007F012FB292000F080
:102C30002FF9BDE8FC8100000000024000080240BE
:102C4000000402400246012000E05043491EC9B280
:102C5000FBD2704770B50B4E05460C46708900F0EC
:102C600017F9280A00F0E0F8E8B200F0DDF8B089C2
:102C700000F00EF9200A00F0D7F8E0B2BDE870408D
:102C800000F0D2B8EC0300202DE9FF5F1D460C4692
:102C90008A46580700D0012000EBD500690810FBD8
:102CA00001F0203A00F0FF09D0B20026DFF898B01A
:102CB000029044E00C2D11D0102D14D0182D40D1CD
:102CC0000298224900EBC00001EB80004FF00008A1
:102CD000875D38060CD51E4882880DE002981D4994
:102CE00000EB4000F0E71C49029801EB0010EDE713
:102CF0000E9828B91648C28821460098FFF73CFE76
:102D00007806070E641CBBF80200A4B2A04218D9D2
:102D1000A4EB0A00A84209D100985446401C80B296
:102D20000090BBF8001081420BD906E008F10100C9
:102D300000F0FF08B8F1080FCBD3761CF6B24E4571
:102D4000B8D3BDE8FF9F0000EC030020CE0C0308C1
:102D5000D80000206A020308DE0603082DE9FF4FB1
:102D600081B00026DDF838A01D46934681463446E2
:102D7000B0464FEA5A0727E0281B401EC1B20A207E
:102D8000FFF760FFBBFBF0F00A21B0FBF1F201FBA3
:102D9000120026B9691E8C4201DA48B10126303092
:102DA000C2B207FB049080B25346CDF8008006E023
:102DB00007FB049080B253462022CDF80080029990
:102DC000FFF762FF641CE4B2AC42D5D305B0BDE8A6
:102DD000F08F2DE9F84F044600F0FF0910190D4659
:102DE000DDE90AB61FFA80F8581987B24FF0000AD9
:102DF00012E0444503D305EB0B004C4685B2BD42BF
:102E00000FD25B4629462046CDF800A0FFF73CFFD5
:102E100004EB5B0084B2761C3278A2F120005E28BD
:102E2000E7D9BDE8F88F00002DE9F041164E0546C0
:102E300010213046FEF77EFC20213046FEF77DFC57
:102E4000DFF8488000244FF6FF7728064FF0100186
:102E5000404602D5FEF771FC01E0FEF76BFC07EA85
:102E6000450580213046FEF765FC80213046FEF79F
:102E700064FC641CE4B2082CE7D33046BDE8F041A2
:102E80001021FEF75ABC000000000240000802407A
:102E90002DE9F041164E054610213046FEF74AFC5A
:102EA00020213046FEF746FCDFF8488000244FF62C
:102EB000FF7728064FF01001404602D5FEF73DFC93
:102EC00001E0FEF737FC07EA450580213046FEF7B2
:102ED00031FC80213046FEF730FC641CE4B2082C43
:102EE000E7D33046BDE8F0411021FEF726BC0000D4
:102EF00000000240000802402DE9F041164E054650
:102F000010213046FEF716FC20213046FEF715FC56
:102F1000DFF8488000244FF6FF7728044FF01001B7
:102F2000404602D5FEF709FC01E0FEF703FC07EA84
:102F3000450580213046FEF7FDFB80213046FEF737
:102F4000FCFB641CE4B2102CE7D33046BDE8F04132
:102F50001021FEF7F2BB0000000002400008024012
:102F600001480089FFF794BFEC03002010B50C4620
:102F7000FFF78EFF2046BDE81040FFF7BDBFFEE71C
:102F80007CB501210C2000F067FB01258DF8045071
:102F900000248DF806408DF8074002208DF80500CA
:102FA0004FF49050104E009069463046FEF75AFBA1
:102FB0000820009069460D48FEF754FB28028DF862
:102FC000044000908DF8075069463046FEF74AFBF2
:102FD00029033046FEF7B1FB012000F047F800203E
:102FE00000F03CF87CBD000000080240000C0240EC
:102FF0004FF480710148FEF796BB000000080240C4
:10300000002000F033B8012000F030B82DE9F04185
:103010000024064625464FF0800800BF28FA05F731
:1030200007EA060000F012F8012000F017F8FFF799
:10303000DFFF012800D13C43002000F00FF86D1C99
:10304000EDB2082DEAD32046BDE8F0810246082102
:103050000148FEF774BB0000000C024002464FF42A
:1030600000710148FEF76BBB0008024002464FF4B6
:1030700080510148FEF763BB000802407047000022
:1030800030B50F22C47801780123FCB1144C2468B8
:1030900001F1E02104F4E064C4F5E064C4F3072422
:1030A000C4F10405E2404478AC40857815402543DE
:1030B0002A0181F80024007800F01F018B404009AC
:1030C000800000F1E020C0F8003130BD01F01F00A9
:1030D00083404809800000F1E020C0F8803130BD15
:1030E0000CED00E002490843024908607047000007
:1030F0000000FA050CED00E0FEB500248DF800405C
:103100000121062000F0A8FA022001908DF8084065
:103110008DF80A4003208DF8090001258DF80B5029
:1031200001A91748FEF79EFA680301908DF8085030
:1031300001A91448FEF796FAFDF7DCFE124EC6F818
:10314000B442642006F52D7607F082F835606420DD
:1031500007F07EF8012000F011F9012269464FF4D2
:10316000506000F019F89DF8001008A001F028FE4A
:103170009DF80000802801D00120FEBD0020FEBD8A
:103180000004024000080240000041424354502025
:1031900049443A25780D0A002DE9F04115460E46BE
:1031A0000446FDF733FFB220FDF70CFFFDF768FF83
:1031B000200AFDF707FFFDF763FFE0B2FDF702FF0E
:1031C000FDF75EFFFDF722FFB320FDF7FBFEFDF7E5
:1031D00057FF00246F1E09E0BC4201D0012000E02F
:1031E0000020FDF7C1FE3055641CE4B2AC42F3D3BD
:1031F000BDE8F041FDF728BF2DE9F147564E002408
:103200002DED048B4FF00A0981B03078DFF84C8146
:10321000401CC0B2B0FBF9F209FB12012746307026
:1032200009B10A2877D2012205A90020FFF7B4FFCF
:103230009DF81400C10672D000F01F0040F0C000DD
:10324000454688F8200001279FED458B9FED469B62
:1032500095F8200007FA04F108424FD044480422B0
:10326000694630F81400FFF797FF95F830009DF895
:103270000210C0079DF8030000EB012022D0FDF7EB
:10328000A5F953EC182BFDF72FF9FDF7ACF905EB79
:10329000440AAAF816009DF801009DF8001000EB02
:1032A0000120FDF793F953EC192BFDF71DF99FED64
:1032B000311B53EC112BFDF714F9FDF794F9AAF823
:1032C0000C001BE0FDF782F953EC182BFDF70CF90D
:1032D000FDF789F905EB440AAAF80C009DF80100F6
:1032E0009DF8001000EB0120FDF770F953EC192B4D
:1032F000FDF7FAF8FDF777F9AAF81600641CE4B2B6
:10330000052CA5D30127A989002019B9E98A09B993
:103310008DF8140030709DF81400C00610D198F894
:103320002000010602D520F0800007E04FF6FF7173
:10333000A8F80C10A8F8161000F0E00088F820009B
:103340003078F02801D986F8009001B03846BDECFD
:10335000048BBDE8F8870000E8000020F0000020A2
:103360007B14AE47E17AD43FD881734694F6D23FBE
:10337000001B0308000000000000894008B5002180
:103380008DF8001010B180208DF8000001226946F0
:103390004FF4506000F001F808BD2DE9F0411646E9
:1033A0000F4604460025FDF731FEB220FDF70AFE68
:1033B000FDF766FE200AFDF705FEFDF761FEE0B2AF
:1033C000FDF700FEFDF75CFE002408E0385DFDF728
:1033D000F9FDFDF755FE050003D1641CE4B2B442CB
:1033E000F4D3FDF731FE2846BDE8F0812DE9FC431A
:1033F00000264FF001084FF007094FF0800C6A4695
:103400008DF803608DF802608DF805608DF80180FD
:103410002F2305248DF804608DF80090002109E029
:103420005B1EDBB2072902D2491CC9B202E00021AF
:10343000641EE4B22CFA01F5075D2F4201D1002C85
:10344000EED1A3F10801CCB214E00521551815F80E
:10345000015C2D0602D509B1012700E00027555C6B
:103460006D0055543D445554491EC9B2FF29EDD352
:10347000641EE4B2002CE8D10021445C555C6C4031
:103480004454491CC9B20529F7D9082BB8D800788B
:10349000BDE8FC8310B54FF480410448FEF743F9C2
:1034A00008B1002010BD012010BD0000000C02403A
:1034B000F8B5254C00260125A07830B101280DD0A3
:1034C000022817D0032808D129E00021A0682CF099
:1034D00005FA012801D1A570E670F8BD1E202BF079
:1034E000FFFEFFF7D7FFD0B12CF0FCFA606002209E
:1034F000A070F8BDFFF7CEFF48B12CF0F3FA616879
:10350000401AB0F5FA6F1CD3E07850B114E00FA068
:103510000090144B9E2214A1042003F01DF8A67005
:10352000F8BD16A000900F4BA4220FA1042003F0B9
:1035300013F8FEF761FCE5703220BDE8F8402BF08F
:10354000CFBE0A20F9E70000C8000020506F776561
:1035500072206B65792073686F7274207072657366
:103560007300000044020308486172647761726569
:103570005C4B45595C4B65792E6300004C6F6E6760
:10358000207072657373206465746563746564206C
:103590002D2073686F77696E6720706F7765722072
:1035A0006F666620554900004FF400410148FEF760
:1035B000C1B80000000C02402DE9F04186B00121A5
:1035C000082000F049F801258DF8045000248DF8FA
:1035D00006400227DFF87C804FF400468DF8057026
:1035E00000968DF8074069464046FEF73BF83146A5
:1035F0004046FEF7A2F801218E03304600F044F861
:103600008DF804408DF8075000968DF805706946D6
:103610004046FEF727F80E21032000F0FFF98DF851
:103620000C400C208DF80D0002968DF80E5002A86B
:10363000FDF7CEFD28208DF8100005208DF8110033
:103640008DF812408DF8135004A8FFF719FD06B04D
:10365000BDE8F081000C0240044A0029116801D045
:10366000014300E0814311607047000030380240A0
:10367000044A0029116801D0014300E08143116030
:103680007047000040380240044A0029116801D008
:10369000014300E08143116070470000443802405C
:1036A00070B5204A1168204C11F00C0104D066104E
:1036B000042903D0082903D004601BE0066019E048
:1036C0001849091F0B68C3F380550B6803F03F03CB
:1036D00015B1B6FBF3F301E0B4FBF3F30C68096832
:1036E000C4F388146343C1F30141491C4900B3FB8F
:1036F000F1F1016011680F2303EA11110B4B5C5CBF
:103700000168E14041601468072505EA94241C5DC6
:1037100021FA04F48460126805EA52329A5CD140BE
:10372000C16070BD083802400024F400240100206C
:103730000022002101E0491C89B28142FBD3521CC6
:1037400092B2042AF5D370471CB501210220FFF77D
:1037500083FF4FF44060012400908DF804408DF801
:10376000064002208DF8050000208DF8070069460C
:103770000448FDF777FF0448C0F8A842C0F8AC42FF
:103780001CBD000000040240008040422DE9FC47BF
:1037900000264006224C8846050E00BF00F018F9AE
:1037A000761E16F0FF0634D000F0E8F8284600F048
:1037B000D1F80028F2D1404600F0CCF80028EDD135
:1037C00000F0DCF86F1CF8B200F0C4F80028E5D176
:1037D00000F07CF82070002000F078F86070012084
:1037E00000F074F8814600F0F3F88DF805508DF87C
:1037F00004808DF8037020788DF8020060788DF8D1
:10380000010000208DF800006846FFF7EFFD4845F5
:10381000C4D12078617840EA01206080BDE8FC874F
:10382000D400002010B507210020FFF7AFFFFCF700
:10383000CDFE9FED081B53EC112BFCF755FE9FEDC1
:10384000071B53EC112BFCF749FEFCF729FF00EE98
:10385000100A10BD7B14AE47E17A943F6666666637
:103860006612714070B5174C206820F4400020604B
:10387000206840F480002060012006F0EFFC124D2B
:103880000123C5F8AC320420FFF752FFC5F8A83277
:103890000A20FFF74DFF206820F4400020602068D8
:1038A0002060012006F0DAFCD5F82C0208B10123D3
:1038B00000E000230020C5F8A8020620FFF738FF2B
:1038C000184670BD000402400080404270B50646B4
:1038D0005FF00804FFF7C6FF00284FEA450003D059
:1038E000C0B240F0010501E000F0FE05641E14F0D6
:1038F000FF04EFD1304600F003F8284670BD000009
:1039000070B512490446086820F440000860086851
:1039100040F480000860012006F0A0FC00250C4B5C
:10392000012684B1C3F8AC620420FFF701FFC3F89D
:10393000A8620C20FFF7FCFEC3F8A852BDE8704057
:103940000620FFF7F5BEC3F8AC52EDE700040240D5
:103950000080404270B505460824280601D50120A4
:1039600000E00020FFF7CCFF6806050E641E14F08F
:10397000FF04F2D1BDE87040FFF774BF124810B5E4
:10398000016821F440010160016841F48001016097
:10399000012006F063FC0D4B0124C3F8AC420A2061
:1039A00003F52A73FFF7C4FE1C600A20FFF7C0FE70
:1039B00000245C600A20FFF7BBFE1C60BDE81040DD
:1039C0000A20FFF7B5BE000000040240008040421C
:1039D000104810B5016821F440010160016841F40C
:1039E00080010160012006F039FC0B4B0024C3F874
:1039F000A8420A2003F52A73FFF79AFE5C600A20AA
:103A0000FFF796FE01241C600A20FFF791FE5C6020
:103A100010BD0000000402400080404210B58A073B
:103A200021F003040849130F21440F22D1F808485C
:103A30009A409443C1F80848D1F8082898400243B6
:103A4000C1F8082810BD0000003001400CB500206E
:103A50002749019000900A6842F480320A604FF4CE
:103A6000A0430A6802F400320092019A521C0192AB
:103A7000009A12B9019A9A42F3D10A68920334D596
:103A8000012000901A484030026842F080520260E3
:103A90001848026842F44042026015480830026843
:103AA0000260026842F400420260026842F4A052DE
:103AB0000260031F104A1A600A6842F080720A60AE
:103AC0000A689201FCD50D4A40F205711160016847
:103AD00021F003010160016841F002010160016809
:103AE000C1F381010229FAD10CBD00900CBD000088
:103AF000003802400070004008544007003C02407B
:103B00004FF0E0210428086903D020F00400086188
:103B1000704740F00400FAE710B52BF0D5FF0128FC
:103B200003D0BDE810402BF0A9BD10BD124810B560
:103B3000016841F4700101601048016841F0010121
:103B400001600E4A00210832116002680C4B1A40D5
:103B50000260031D0B4A1A60026822F48022026090
:103B600006480C300160FFF771FF03494FF0006019
:103B70008039086010BD000088ED00E00038024088
:103B8000FFFFF6FE103000240029018802D041F02A
:103B9000800101E021F08001018070470029018847
:103BA00002D041F0010101E021F0010101807047E4
:103BB000002A828901D00A4300E08A43828170474B
:103BC00070B5028C22F480720284028C8488838B0C
:103BD0000D8823F073031D4322F400738E894FF682
:103BE000FF7202EA06261E434B8802EA0323334390
:103BF000104EB04202D0104EB04215D123F40066F0
:103C0000CB8924F4405402EA0323334323F480662F
:103C10008B8802EA032333430E8A02EA0616264300
:103C20004C8A02EA04143443848085838968C16322
:103C3000038470BD0000014000040140828B22F02B
:103C400008020A43828370470021018041808180FD
:103C500081608181C18101824182704730B50288D3
:103C6000164B174C98420DD0A0420BD0B0F1804FAC
:103C700008D0144DA84205D0134DA84202D0134DD0
:103C8000A84203D122F070054A882A43104DA84269
:103C900006D0104DA84203D022F440750A892A4369
:103CA00002804A68C2620A880285984201D0A04216
:103CB00001D1897A01860121818230BD0000014055
:103CC000000401400004004000080040000C0040D7
:103CD00000100040001400404FF0FF31416000210F
:103CE0000180018141808172704700002DE9FF4F02
:103CF00083B00E46DDE910A94E4907464FF47840DF
:103D0000DDF8508008804CA01024CDE900404B4DD8
:103D10009346A0216B882A882820FFF75AF848A0EC
:103D2000CDE900406B882A88A0217820FFF751F860
:103D300044A0CDE900406B882A88B4212820FFF7F1
:103D400048F841A0CDE900406B882A88B42178204A
:103D5000FFF73FF83DA0CDE900406B882A88C821D5
:103D60002820FFF736F83AA0CDE900406B882A8872
:103D7000C8217820FFF72DF836A0CDE900406B88E8
:103D80002A88DC212820FFF724F833A0CDE9004061
:103D90006B882A88DC217820FFF71BF82FA0CDE95B
:103DA00000406B882A88F0212820FFF712F80423AE
:103DB0003A46A02140200094FEF7D0FF042332466B
:103DC000A02190200094FEF7C9FF04235A46B42195
:103DD00040200094FEF7C2FF04230094B4219020F9
:103DE000069AFEF7BBFF04235246C82140200094E8
:103DF000FEF7B4FF04234A46C82190200094FEF742
:103E0000ADFF04230094DC214020129AFEF7A6FFA8
:103E100004230094DC219020139AFEF79FFF0323D4
:103E20004246F02160200094FEF798FF07B0BDE8FD
:103E3000F08F0000DC00002078313A00EC03002015
:103E400079313A0078323A0079323A0078333A00E0
:103E500079333A0078343A0079343A006661632065
:103E600069733A002DE9F04FDFF804B41F202DEDFF
:103E70000C8B89B04FF6FF77002425465E46ABF8E1
:103E80000000FC4807803846FEF718FC4FF47848DD
:103E9000A6F800803846FEF711FCF748A246A6F8BF
:103EA00000A001684FF01009CDE90091282164239A
:103EB000A0220846FEF78DFF14214246084600F076
:103EC000BDFAEE4E86F820A09FEDED0A4FF00108F6
:103ED00086ED090A9FEDEB8B9FEDEC9B9FEDEDBB13
:103EE000DFF8B8A371680120884796F82000B8EB86
:103EF000901F48D120F0400086F8200005A8B18925
:103F000020F8241000EB8400641C0025F18AE4B240
:103F10004180012C06D0022C11D0032C1FD0042C80
:103F200031D13FE014213A46084600F087FABAF84A
:103F300000004FF47842143880B2142121E0BAF81E
:103F400000003A46143880B2142100F077FABAF82B
:103F500002004FF47842143881B2142011E0BAF80C
:103F600002003A46143881B2142000F067FABAF819
:103F700002004FF47842143881B2BAF800001438C5
:103F800080B200F05BFA0A2006F062F96D1CADB257
:103F9000B5F57A7FA6D900F089FA09B0BDEC0C8B93
:103FA000BDE8F08FBDF81400BDF81810411A00D517
:103FB0004942BDF81600BDF81A20801A00D54042CB
:103FC000494340430844FCF701FB41EC100B00F06F
:103FD0001BFF51EC100BFCF706FB84B2BDF81C0074
:103FE000BDF82010401A00D54042BDF81E10BDF8A3
:103FF0002220891A00D54942404301FB0100FCF709
:10400000E5FA41EC100B00F0FFFE51EC100BFCF751
:10401000EAFA00EE104A80B20090F8EE400A00EE94
:10402000100AB8EE401A80EE810A10EE100AFCF772
:10403000F3FA41EC1A0B53EC182BFCF701FB7DD380
:1040400053EC192B51EC1A0BFCF712FBF7D3002C95
:1040500074D000980028FBD0BDF81400BDF81C10E7
:10406000411A00D54942BDF81600BDF81E20801A3D
:1040700000D54042494340430844FCF7A7FA41ECCD
:10408000100B00F0C1FE51EC100BFCF7ACFA84B23F
:10409000BDF81800BDF82010401A00D54042BDF808
:1040A0001A10BDF82220891A00D54942404301FB6D
:1040B0000100FCF78BFA41EC100B00F0A5FE51EC6F
:1040C000100BFCF790FA00EE104A80B2F8EE400AAE
:1040D00000EE100AB8EE401A80EE810A10EE100AC7
:1040E000FCF79AFAB0EE48CAF0EE68CA41EC1A0B37
:1040F00053EC1C2BFCF7A4FA60D3B0EE49DAF0EED7
:1041000069DA53EC1D2B51EC1A0BFCF7B1FA55D3BD
:10411000BDF81800BDF81C10401A00D54042BDF88B
:104120001A10BDF81E20891A00D54942404301FBF0
:104130000100FCF74BFA41EC100B00E064E000F0EA
:1041400063FE51EC100BFCF74EFA84B2BDF814007C
:10415000BDF82010411A00D54942BDF81600BDF83F
:104160002220801A00D54042494340430844FCF7CE
:104170002DFA41EC100B00F047FE51EC100BFCF750
:1041800032FA00EE104A80B2F8EE400A00EE100A51
:10419000B8EE401A80EE810A10EE100AFCF73CFAE5
:1041A00041EC1A0B53EC1C2BFCF74AFA06D353ECE8
:1041B0001D2B51EC1A0BFCF75BFA71D2BAF8021006
:1041C000BAF8000014391438002489B280B23A4693
:1041D00000F034F914214FF47842084600F02EF92B
:1041E00053EC1B2B51EC1A0BFCF77EF9FCF7FBF997
:1041F00080B2BDF82210BDF82030BDF81E20CDE9F8
:104200000310CDE9012324E0BAF80210BAF8000047
:1042100014391438002489B280B23A4600F00EF9FD
:1042200014214FF47842084600F008F953EC1B2B98
:1042300051EC1A0BFCF758F9FCF7D5F980B2BDF830
:104240002220BDF82030BDF81E10CDE90320CDE9B5
:104250000113BDF81C000090BDF81A30BDF81820FD
:10426000BDF81610BDF81400FFF740FD3AE617E060
:10427000DC000020DE0000200C1B0308F000002002
:1042800000000000666666666666EE3FCDCCCCCC6C
:10429000CCCCF03F0000000000005940EC030020AF
:1042A000BDF81840BDF81430F6EE001AE01A00EE22
:1042B000100ABAF800005246B8EEC01AA0F1280160
:1042C00000EE101AE118B8EEC00AC0EE010A00EEC6
:1042D000101AB8EE401A00EE100AB8EE400AC6ED09
:1042E000090A00EEC10AFDEEE00A20EE210ABDEE49
:1042F000C00A10EE101AB185BDF81E40BDF8163088
:10430000E11A00EE101A51882344B8EEC01AA1F148
:10431000280C00EE10CAB8EEC02A82EE010A01EEA7
:10432000103AB8EE412A01EE101AB8EE411A86EDA5
:104330000A0A00EE421A21EE211ABDEEC11A11EE50
:10434000103AF38510EE903A002B00DA5B42022B14
:1043500008DCBDEEC00A10EE103A002B00DA5B421A
:10436000022B2DDD14391438002489B280B23A466C
:1043700000F064F814214FF47842084600F05EF82B
:104380001DA1CDE90091BAF80230BAF800201A2137
:104390002820FEF71EFD96F8300048B15FF00000BF
:1043A00086F8300030B1194890210170D02105E025
:1043B0000120F5E71548D02101709021417091E569
:1043C0001F20ABF800003846FEF778F910A1CDE9C0
:1043D0000091BAF80230BAF800206E212320FEF7CF
:1043E000F8FC4FF47A7005F033FF00F0E5F9384639
:1043F000FEF764F9D1E500005450204E6565642055
:10440000726561646A75737421000000EC0000201D
:10441000546F7563682053637265656E2041646AEA
:10442000757374204F4B2100024600200146535CF7
:10443000491C184480B21229F9D370472DE9F04184
:10444000044619480D460B46028004F10D0082B265
:10445000193880B2FEF7DCF905F10D0083B2193886
:1044600081B222461046FEF7D3F96E1C04F1010812
:10447000B1B21FFA88F0FEF719FAB1B2661EB0B2F7
:10448000FEF714FA6F1EB9B21FFA88F0FEF70EFAA3
:10449000B9B2B0B2FEF70AFA29462046BDE8F041AB
:1044A0000622FEF711BA0000DC00002000B585B03E
:1044B00014226946002000F01EFCBDF80000A0F5A3
:1044C000B4415A3906D16846FFF7AEFFBDF8121065
:1044D000814202D0002005B000BD0F489DED010AC9
:1044E00080ED090A9DED020A80ED0A0ABDF80C1064
:1044F0008185BDF80E10C1859DF8103080F83030F0
:104500009021001FD02213B10170427001E00270AF
:1045100041700120DFE70000F00000207CB500F0D2
:10452000BEFB3A4D3A4CA888A0F5AA41103940D0BC
:10453000A0F5C85163394FD001211220FFF78CF844
:104540004FF40070009001208DF8040000248DF8D5
:10455000064002252F4E8DF805508DF8074069461C
:104560003046FDF77FF88020009069463046FDF721
:1045700079F8694628480095FDF774F8A80200907C
:104580008DF804408DF8074069463046FDF76AF81B
:10459000E801009069463046FDF764F81C49163181
:1045A000A1F10A0000F0B6F8FFF780FF18B3002071
:1045B0007CBDFDF7C9F868B1FEF79EFD1748606045
:1045C00014F8300FA97940F0800001F00101084390
:1045D0002070ECE71248F2E7FCF732FE1148606009
:1045E00094F83000A97940F0800001F001010843FF
:1045F00084F83000DBE74FF6FF70FEF75FF8FFF757
:1046000031FCFFF753FF01207CBD0000EC030020CC
:10461000F00000200010024000040240F9310008C0
:10462000C1180008D11300082DE9F04700271E4CDF
:104630003D463E46C4F89C72C4F8A472DFF86CA0F4
:10464000CAF8847204F5277400F040F9062005F0DA
:1046500005FE2660012005F001FE4FF00108C4F8B8
:104660000080404605F0FAFD2660B14646464FF60A
:10467000FF78A4F5277400BF08EA4505C4F89C92AA
:10468000012005F0EBFDC4F89C62D4F8200208B1CB
:104690006D1CADB27F1CFFB2102FEDD32809CAF8F4
:1046A0008462BDE8F0870000000042420080404282
:1046B000FEB5064600256C463046FFF7B5FF24F8E8
:1046C00015006D1CADB2052DF6D30020431C99B228
:1046D0000CE000BF34F8102034F81150AA4203D97E
:1046E00024F8105024F81120491C89B20529F1D36F
:1046F00098B20428EAD300215FF0010034F81020BA
:10470000401C114480B289B20428F7D30320B1FBC6
:10471000F0F0FEBD2DE9F041074C06460D4620782D
:10472000FFF7C6FF07466078FFF7C2FF3780288093
:104730000120BDE8F0810000EC0000207FB50C46B0
:104740000546694602A8FFF7E5FF00282FD001A91A
:1047500003A8FFF7DFFF002829D0BDF80C30BDF813
:104760000820934203D803F13200824205D39A42D3
:104770001FD802F1320083421BD2BDF80410BDF8ED
:104780000000814203D801F13206B04204D38842CE
:104790000FD8323081420CD2D01840082880BDF8A2
:1047A0000000BDF80410084440082080012004B037
:1047B00070BD0020FBE7000000B585B045F65A202B
:1047C000ADF80000104890ED090A8DED010A90ED5A
:1047D0000A0A8DED020A818DADF80C10C18DADF87D
:1047E0000E1090F830008DF810006846FFF71CFEA0
:1047F000ADF81200002000F0A4FA1422694600204F
:1048000000F04FFA05B000BDF000002002462D4830
:1048100010B5D0F82C022C4C40B194F820000106C1
:1048200043D520F0800084F8200045E0264800F1C0
:1048300016010C3012B1FFF781FF2AE0FFF77EFF6F
:1048400038B3B4F92C0094ED091A00EE100AA089CF
:1048500000EE900AB8EEC00AF8EE600A01EE200AF7
:10486000BCEEC00A10EE100AA081B4F92E0094ED3F
:104870000A1A00EE100AE08A00EE900AB8EEC00AAA
:10488000F8EE600A01EE200ABCEEC00A10EE100A33
:10489000E08294F8200000060ED4C02084F82000A6
:1048A000A089A082E08AE08306E00020A082E08365
:1048B0004FF6FF70A081E08294F8200000F08000A5
:1048C00010BD000000004242F00000202DE9F04140
:1048D00000240D4D064627464FF00108300602D54C
:1048E000C5F8A48201E0C5F8A4727006060EC5F8EA
:1048F0009C72012005F0B2FCC5F89C82641CE4B2F5
:10490000082CEBD3BDE8F0810000424238B5144CCE
:104910002078012823D004F01DFEA070002816D0B6
:10492000012020702BF0DEF8E062002060709FED27
:104930000D0A0DA084ED090A0090164B562216A10F
:10494000042001F009FEBDE838402AF0FBBA20A09F
:104950000090104B4C2210A1042001F0FDFD38BD49
:10496000940000200000000054656D706572617451
:10497000757265206D6561737572656D656E742005
:104980007374617274656420284D4C583930363127
:10499000342900000E0103084170706C6963617472
:1049A000696F6E5C4170705F4755495C4755495F60
:1049B00054656D70657261747572655C4755495FC9
:1049C00054656D70657261747572652E63000000C8
:1049D0004572726F723A2053656E736F72206F6604
:1049E000666C696E652C2063616E6E6F74207374E3
:1049F000617274206D6561737572656D656E7400AA
:104A00000B4808B50178012911D1002101709FEDF3
:104A1000090A114B80ED090A07A0009061220FA13D
:104A2000042001F099FDBDE808402AF08BBA08BDCA
:104A3000940000200000000054656D706572617480
:104A4000757265206D6561737572656D656E742034
:104A500073746F70706564002B0103084170706C93
:104A600069636174696F6E5C4170705F4755495C42
:104A70004755495F54656D70657261747572655C08
:104A80004755495F54656D70657261747572652E26
:104A9000630000001FB52C4C2078012853D12BF067
:104AA00021F8E16A401AB0F5FA5F2DD2607814213E
:104AB000401CC0B2B0FBF1F2607001FB1200002894
:104AC00041D126F047FAD4ED090A204910EE900AA8
:104AD000884206DBD4ED090A1D4910EE900A88428F
:104AE00002DD84ED090A0BE0D4ED090A9FED191AE5
:104AF00060EE810A9FED181A40EE010AC4ED090A22
:104B0000BDE81F402AF01EBA0220207026F022FACB
:104B100010EE100A0D49C94308441049884201D2D9
:104B200084ED090A94ED090A10EE100AFBF774FDF2
:104B3000CDE902010AA00090134B8B2213A104209F
:104B400001F00AFDDCE71FBD940000200000F041E9
:104B5000000034423333333F9A99993EFFFF4300BC
:104B600054656D7065726174757265206D656173F1
:104B70007572656D656E7420646F6E653A20252EC2
:104B80003266204300000000470103084170706C4A
:104B900069636174696F6E5C4170705F4755495C11
:104BA0004755495F54656D70657261747572655CD7
:104BB0004755495F54656D70657261747572652EF5
:104BC000630000000029818902D041F4005101E016
:104BD00021F40051818170470246002012880A4268
:104BE00000D00120704700007FB50446008A0D46C2
:104BF00020F44051E88808432082A08941F20C61EA
:104C00008843A9882A8911436A8902431143A181F3
:104C1000A08A20F44071A8890843A0826846FEF764
:104C20003FFD1A48844202D01948844201D10398BA
:104C300000E00298A189090400EBC00101EB00101B
:104C4000296801D5490000E08900B0FBF1F2642039
:104C5000B2FBF0F109010B096FF018056B4302EB91
:104C60008302A3891D044FF0320306D503EBC20271
:104C7000B2FBF0F000F0070005E003EB0212B2FB1C
:104C8000F0F000F00F00084320817FBD00100140CC
:104C900000140140C1F3080181807047FEE7FEF770
:104CA0006FB970B51546044628440E46B0F5001F8E
:104CB00020D800F07BF8FEF7A3F90220FEF7A6F952
:104CC000C4F30740FEF7A2F9C4F30720FEF79EF9EC
:104CD000E0B2FEF79BF9002404E0305DFEF796F9A0
:104CE000641CA4B2AC42F8D3FEF78DF9BDE8704065
:104CF00000F046B870BD70B51546044628440E460F
:104D0000B0F5001F1CD8FEF77BF90320FEF77EF9F3
:104D1000C4F30740FEF77AF9C4F30720FEF776F9EB
:104D2000E0B2FEF773F9002404E0FF20FEF76EF90D
:104D30003055641CAC42F8D3BDE87040FEF763B94F
:104D400070BD10B50446B0F5001F17D200F02EF864
:104D5000FEF756F92020FEF759F9C4F30740FEF795
:104D600055F9C4F30720FEF751F9E0B2FEF74EF90A
:104D7000FEF749F9BDE8104000F002B810BD000090
:104D800010B5FEF73DF90520FEF740F9064C01E0AD
:104D9000641E04D0FF20FEF739F9C007F8D1BDE842
:104DA0001040FEF730B90000A086010010B5FEF7F4
:104DB00027F90620FEF72AF9BDE81040FEF723B9CF
:104DC0000FB4054B10B503A9044A029802F0FEF88F
:104DD00010BC5DF814FB0000FD220108E403002074
:104DE0000FB4084B10B504A902AA039802F0EEF81C
:104DF000044602A9002002F080FC204610BC5DF8A9
:104E000014FB0000FB76000800B52DED048BB0EE1E
:104E1000409AF0EE609A83B051EC190BFBF7A6FDB7
:104E200041EC180B18EE100A18EE901A8DED008B5D
:104E3000002818BF0120084320F00040C0F17F6027
:104E400000F1E040C00F14D019EE101A19EE900ACC
:104E50008DED009B002918BF0121084320F0004080
:104E6000C0F17F6000F1E040C00F04BF012000F0FE
:104E700017F8B0EE480A03B0F0EE680ABDEC048BF8
:104E800000BD02E008C8121F08C1002AFAD170470D
:104E90007047002001E001C1121F002AFBD17047BA
:104EA0000149086070470000E803002070B504461F
:104EB00000256FF02F0608E02068411C2160007873
:104EC00005EB850106EB410145182068007800F0EC
:104ED000C7F80028F0D1284670BD00002DE9FF5F1B
:104EE00082B00021DDE90430020DDDF840B003435B
:104EF00018D044F61050A2F2FF3242431514119814
:104F000001281FD0A5EB0B00401C5FEA000A4FF000
:104F100000064E4FDFF83891B046504615D5CAF11D
:104F2000000413E0119801244AA3012801D16FEA7B
:104F30000B010298119AC0E90031C0E9024206B0A3
:104F4000BDE8F09FCBF10000DFE704460021404AB6
:104F5000491842EB0450CDE9001012E0E00707D0F9
:104F600032463B4640464946FBF7BEFA80468946F4
:104F700032463B4610461946FBF7B6FA06460F4640
:104F80006410002CEAD1DDE90401DDE90023BAF167
:104F9000000F06DAFBF7A8FA42464B46FBF7A4FAE5
:104FA00005E0FBF774FC42464B46FBF770FC0446F9
:104FB0000E460022284BFBF75BFB03D84FF0FF3077
:104FC000014607E00022254B20463146FBF7E5F974
:104FD000FBF71DFD102409E0002C0ADB0A22002348
:104FE000FBF74AF9039B30321A55641E50EA01025E
:104FF000F2D1641C039AC4F111031444119A012ADA
:1050000003D0012208430DD10AE0084304D0002058
:105010004FF0110B119072E7A3EB0B056D1E0DE025
:105020005B4504DD4FF0000205F1010504E003DA01
:105030004FF00002A5F10105002AECD00298119969
:10504000C0E90231C0E9004579E7000000001440E2
:105050000000F03F300000000000F0430000E03F9F
:105060003038092801D8012070470020704700001F
:1050700010B54021074801F0EDF90022142106483F
:1050800022F03CFD054CA06003F014F800202070D5
:1050900010BD0000900500205D810008E80200209E
:1050A00070B5B1F90030B2F90040A34200DC2346EC
:1050B0000380B1F90250B2F90240A54200DD2C464E
:1050C0004480B1F90460B2F90450AE4200DA3546CA
:1050D0008580B1F90610B2F90620914200DB114635
:1050E000C1800120AB4201DC8C4200DD002070BD9C
:1050F000F8B50D460446B0F90000B1F900101646A7
:10510000884247DBB4F90210B5F90220914241DB35
:10511000B4F90410B5F9042091423BDCB4F906104F
:10512000B5F90620914235DC96B3ADF800006088F1
:10513000ADF8020032466946284600F099F800288A
:1051400027D0A088ADF800006088ADF80200324694
:105150006946284600F08CF800281AD02088ADF85F
:105160000000E088ADF8020032466946284600F0AB
:105170007FF800280DD0A088ADF80000E088ADF8D9
:10518000020032466946284600F072F8002800D036
:105190000120F8BD0020F8BDB0F90020B1F90430BD
:1051A0009A4213DCB0F90420B1F900309A420DDBC9
:1051B000B0F90220B1F906309A4207DCB0F90600D6
:1051C000B1F90210884201DB0120704700207047CE
:1051D000F8B50D460446B0F90400B1F900101646C2
:1051E000884243DBB4F90600B5F9021088423DDB82
:1051F000B4F90000B5F90410884237DCB4F90210A4
:10520000B5F90620914231DC76B3ADF80000608834
:10521000ADF8020032466946284600F029F818BB6E
:10522000A088ADF800006088ADF8020032466946FB
:10523000284600F01DF8B8B92088ADF80000E088D5
:10524000ADF8020032466946284600F011F858B918
:10525000A088ADF80000E088ADF80200324669464B
:10526000284600F005F808B10020F8BD0120F8BD7F
:105270002DE9FC4114460E46B1F90020B0F90010AA
:1052800005468A423ADBB5F90400824236DCB6F9BB
:105290000270B5F90220974230DBB5F906309F4223
:1052A0002CDC002C75DD401A9A1A401C521C00B2EE
:1052B00012B200EBD07002EBD2724010521090424A
:1052C00000DB1046844200DD0446ADF8001028885B
:1052D00000222044ADF804006888ADF80200688818
:1052E00031462044ADF806006846FFF7C1FF40B1E3
:1052F000BDF804002044ADF804003FE00020BDE804
:10530000FC81E8880022001BADF80200E888ADF8B7
:10531000060031466846FFF7ABFF28B1BDF8040030
:105320002044ADF8040011E0A8880022001BADF86D
:105330000000A888ADF8040031466846FFF798FFE2
:1053400050B1BDF80000001BADF80000BDF8020030
:10535000001BADF8020016E06888ADF8020068880E
:1053600000222044ADF8060031466846FFF780FF72
:1053700070B1BDF80000001BADF80000BDF80600DC
:105380002044ADF80600314668461FF073FCB6E7CE
:10539000FFE70120B3E710B5B1F90040B2F90030E2
:1053A0009C4200DA23460380B1F90240B2F9023090
:1053B0009C4200DA23464380B1F90440B2F904303C
:1053C0009C4200DD23468380B1F90610B2F9062025
:1053D000914200DC1146C18010BD0000FEB50546BB
:1053E00022F028FB00267C4C074600960DB1E868A9
:1053F00001E013F01FF8606000691FF027FB606890
:10540000406908B11FF022FB6068C0691FF01EFBF5
:105410006068006A1FF01AFB60680169F1B31FF051
:10542000A9FE1FF025FE6068B0F8501199B301681D
:10543000097C890715D513F049F9401E05B260684B
:1054400013F010F8401E03B20022114601A8009587
:1054500010F009FD606801A90268926B516005F0C7
:10546000D9FE60684FF4807130301AF0A3FE606896
:10547000202100F598701AF09DFE6068A0F8506138
:10548000384622F0D1FA009060680068436A13B190
:105490002268009998471AF0F1FB00E007E000F05D
:1054A000F9F800F0CBF84D4D6F6967B152E0A0F804
:1054B00050614BA00090514B4FF4997250A10220C3
:1054C00001F04AF8FEBD12F0B5FF12F0E1FF19F04D
:1054D00003F8074600227F211FF054F900221146ED
:1054E000104612F02DFA0190BDF804100022384643
:1054F0001FF036F9FF221146104612F021FA0190F2
:10550000BDF80410002238461FF02BFA00220321B8
:1055100038461FF0FDF90022032138461FF0E6F956
:105520000022032138461FF0E7F900220321384604
:105530001FF0E8F90022032138461FF00CFA3AA1C7
:10554000384619F0A7FF00231A46062138461BF0FB
:1055500045FA6F61286822F067FAB0F5967F0CD2A1
:10556000206841F288318842ACD9686800990844C3
:105570006860A868401CA860FEBD22F05BFA286045
:1055800060684FF47A7140680068B1FBF0F06968B8
:1055900009B901216960A968E1B14FF47A725143F8
:1055A0006A68B1FBF2F46E60AE60844200D90446D2
:1055B000286920442861E868401CE86022F014FB58
:1055C000C0F1640303B022463846BDE8F04017A19D
:1055D00019F0E8BF0446E6E774010020FC03002050
:1055E0007468657265206973206E6F2061637469E9
:1055F00076652073637265656E000000841E030883
:105600004D6964646C655C4C56474C5C4755495C1D
:105610006C76676C5C7372635C636F72655C6C76EE
:105620005F726566722E63003F000000257520469C
:1056300050530A25752525204350550070B50A4D55
:10564000002400BFC4EBC40655F8260008B11AF0C8
:1056500039FC05EB86001C211AF0ACFD641CE4B299
:10566000042CEFD370BD00006C0600200849496887
:105670000AE04A68824202D00A68824203D10A7E66
:1056800042F001020A7649690029F2D17047000010
:1056900048010020704700000421014800F0DABEF4
:1056A000840500201C21014800F0D4BE9C05002088
:1056B0002DE9FF5F0446DDE90E0613B9B0F5807FE2
:1056C0007ED0B6F900504FF0FF376D42454307EBEF
:1056D00025252DB22580B6F902C0CCF1000C0CFBBB
:1056E00000FC07EB2C273FB26780B6F900C0A1EBA6
:1056F0000C0141434FF0020C0CEB212109B2A180B7
:10570000B6F90280A2EB080242430CEB222000B261
:10571000E080002B7ED04FF00A0A93FBFAF5684236
:1057200000EB800003EB400705F1010928B222F0ED
:1057300093FD00900FFA89F022F08EFD83465A35D2
:1057400028B222F089FD804609F15A0000B222F009
:1057500083FD0146009AC7F10A0000FB02F300FB3B
:1057600008F00BFB073301FB070193FBFAF291FBF7
:10577000FAF04FEA601AB4F90010B4F902000AFB1B
:1057800001FCCDF80CC05511378805FB10C207EBA2
:10579000A2220FFA82F905FB01F2BB46029277883A
:1057A0000AFB002107EBA1210BB2B4F90410BE469D
:1057B0000AFB01FC05FB10C20BEBA22216B200E0B3
:1057C0002FE005FB01F7CDE9007CB4F90680DDF898
:1057D0000CC00AFB007005FB18C1DDF804C0009F77
:1057E00005FB18C5029A0AFB087C0AFB08220BEB92
:1057F000A1210EEBAC270EEBA02009B20EEBA222EA
:105800000BEBA5250FFA87FC00B212B22DB24F4662
:10581000494500E00EE000DA0F46B54216DAA84628
:1058200015E000202080491E6080A180521EE28089
:10583000BDE8FF9F32882A44228072883A44628001
:1058400032881144A180718808444FE0B046474532
:1058500004DA4F46494506DA0F4604E0B54201DA5C
:105860002F4600E0374627804F46494500DD0F466A
:10587000B54201DDA84600E0B046474503DD4D4690
:10588000494505DC01E0B54201DD294600E031462D
:10589000A1809A4201DA154600E01D46844501DAEE
:1058A000614600E001468D4205DA9A4201DA11466E
:1058B00006E0194604E0844501DA614600E001464D
:1058C00061809A4201DD114600E01946844501DD00
:1058D000654600E00546A94205DD9A4201DD104615
:1058E00004E0184602E0844500DD6046E0809FE762
:1058F0002DE9FE4F0446D0F800B0B0F90800E58964
:10590000081AB4F90A10511AD4E90932B5F5807FA2
:1059100038D0A589ADB3A66B704345114E437011C5
:10592000266BE16A06FB05F701FB1077694306FB6E
:10593000001003EBA72902EBA02080460612B4F961
:1059400004004FEA2927B8424EDD002F4CDBB4F9A2
:105950000610B14248DD002E46DB94F834104A07A9
:1059600045D58A0704F1140322D400FB06704500D4
:105970004FF0020A0BEB0501524618461AF0D0FB15
:1059800027E00DE0256BE66A05FB00F706FB1177C3
:10599000464305FB016003EBA70902EBA000CCE73F
:1059A000A56B68434D4303EB601902EB6510C4E738
:1059B00000FB067000EB40054FF0030A0BEB0501FE
:1059C000022218461AF0ACFBE81C584410F8010CEF
:1059D000A07594F83400C0071FD04FF4FC60ADF8F8
:1059E0000000A18A814218D10020BDE8FE8F32B2AA
:1059F00004F118002369CDE90102002539B2AA4655
:105A00008B4616F0CDFF0090BDF80000A082DDE9C6
:105A10000102594616F05CFFDAE7E07C78B1A4F8A1
:105A20003C90A4F83E80A4F84070A4F842606564FD
:105A300084F848A02046BDE8FE4F00F002B80120DF
:105A4000D3E72DE9F04F044690F83C10D0F80090D1
:105A500090F83E0087B04FF0FF36702907DAB4F9AE
:105A600040203546012A00D5002580310DE09029DF
:105A700016DDB4F94020B4F904300125521C9A42D5
:105A800000DB0025A1F27F114942C9B28846702887
:105A900009DAB4F94210012900D50026803010E05F
:105AA0000025FF21F2E790280DDDB4F94210B4F98A
:105AB00006200126491C914200DB0026A0F27F103F
:105AC0004042C7B201E00026FF2760690090A07D38
:105AD0000590002083468246049094F834004007E5
